:020000040800F2
:10000000000002207D270008DD260008E326000806
:10001000E9260008EF260008F52600080000000089
:10002000000000000000000000000000FB260008A7
:1000300009270008000000001727000825270008EE
:10004000CD270008CD270008CD270008CD270008C0
:10005000CD270008CD270008CD270008CD270008B0
:10006000CD270008CD270008CD270008CD270008A0
:10007000CD270008CD270008CD270008CD27000890
:10008000CD270008CD270008CD270008CD27000880
:10009000CD270008CD270008CD270008CD27000870
:1000A00031270008CD270008CD270008CD270008FC
:1000B000CD270008CD270008CD270008CD27000850
:1000C000CD270008CD270008CD270008CD27000840
:1000D000CD270008CD27000845270008CD270008B8
:1000E000CD270008CD270008CD270008CD27000820
:1000F000CD270008CD270008CD270008CD27000810
:10010000CD270008CD270008CD270008CD270008FF
:10011000CD270008CD270008CD270008CD270008EF
:10012000CD270008CD270008CD270008CD270008DF
:10013000CD2700080000000000000000CD270008C7
:10014000CD270008CD270008CD270008CD270008BF
:10015000CD270008CD270008CD270008CD270008AF
:10016000CD270008CD270008CD270008CD2700089F
:10017000CD270008CD270008CD270008000000008B
:1001800000000000CD270008000000000000000073
:10019000CD2700080000000000000000CD27000867
:1001A000000000000000000000000000CD27000853
:1001B000CD270008CD270008CD270008CD2700084F
:0401C000CD2700083F
:1001C80010B5054C237833B9044B13B10448AFF389
:1001D80000800123237010BD0C00002000000000E7
:1001E800E868000808B5034B1BB103490348AFF39F
:1001F800008008BD0000000010000020E86800082A
:1002080081F0004102E000BF83F0004330B54FEABF
:1002180041044FEA430594EA050F08BF90EA020F2C
:100228001FBF54EA000C55EA020C7FEA645C7FEABF
:10023800655C00F0E2804FEA5454D4EB5555B8BFE2
:100248006D420CDD2C4480EA020281EA030382EA53
:10025800000083EA010180EA020281EA0303362DE5
:1002680088BF30BD11F0004F4FEA01314FF4801CB8
:100278004CEA113102D0404261EB410113F0004FCA
:100288004FEA03334CEA133302D0524263EB430381
:1002980094EA050F00F0A780A4F10104D5F1200E1F
:1002A8000DDB02FA0EFC22FA05F2801841F100017A
:1002B80003FA0EF2801843FA05F359410EE0A5F14E
:1002C80020050EF1200E012A03FA0EFC28BF4CF07F
:1002D800020C43FA05F3C01851EBE37101F0004535
:1002E80007D54FF0000EDCF1000C7EEB00006EEB42
:1002F8000101B1F5801F1BD3B1F5001F0CD34908CC
:100308005FEA30004FEA3C0C04F101044FEA445222
:1003180012F5800F80F09A80BCF1004F08BF5FEAA9
:10032800500C50F1000041EB045141EA050130BD89
:100338005FEA4C0C404141EB0101013C28BFB1F59B
:10034800801FE9D291F0000F04BF01460020B1FAE6
:1003580081F308BF2033A3F10B03B3F120020CDAB9
:100368000C3208DD02F1140CC2F10C0201FA0CF097
:1003780021FA02F10CE002F11402D8BFC2F1200CFC
:1003880001FA02F120FA0CFCDCBF41EA0C019040B2
:10039800E41AA2BF01EB0451294330BD6FEA0404FB
:1003A8001F3C1CDA0C340EDC04F11404C4F12002E6
:1003B80020FA04F001FA02F340EA030021FA04F3F8
:1003C80045EA030130BDC4F10C04C4F1200220FA4F
:1003D80002F001FA04F340EA0300294630BD21FA8D
:1003E80004F0294630BD94F0000F83F4801306BF53
:1003F80081F480110134013D4EE77FEA645C18BF47
:100408007FEA655C29D094EA050F08BF90EA020FDD
:1004180005D054EA000C04BF1946104630BD91EAD5
:10042800030F1EBF0021002030BD5FEA545C05D1D8
:100438004000494128BF41F0004130BD14F5800417
:100448003CBF01F5801130BD01F0004545F0FE418B
:1004580041F470014FF0000030BD7FEA645C1ABFC0
:10046800194610467FEA655C1CBF0B46024650EAF7
:10047800013406BF52EA033591EA030F41F4002123
:1004880030BD00BF90F0000F04BF0021704730B5A9
:100498004FF4806404F132044FF000054FF000017E
:1004A80050E700BF90F0000F04BF0021704730B53F
:1004B8004FF4806404F1320410F0004548BF404214
:1004C8004FF000013EE700BF42004FEAE2014FEA69
:1004D80031014FEA02701FBF12F07F4393F07F4F44
:1004E80081F06051704732F07F4208BF704793F047
:1004F8007F4F04BF41F40021704730B54FF460745A
:1005080001F0004521F000411CE700BF50EA01025C
:1005180008BF704730B54FF000050AE050EA010205
:1005280008BF704730B511F0004502D5404261EB75
:1005380041014FF4806404F132045FEA915C3FF4B6
:10054800D8AE4FF003025FEADC0C18BF03325FEA53
:10055800DC0C18BF033202EBDC02C2F1200300FA04
:1005680003FC20FA02F001FA03FE40EA0E0021FA29
:1005780002F11444BDE600BF70B54FF0FF0C4CF417
:10058800E06C1CEA11541DBF1CEA135594EA0C0FC9
:1005980095EA0C0F00F0DEF82C4481EA030621EA04
:1005A8004C5123EA4C5350EA013518BF52EA03353F
:1005B80041F4801143F4801338D0A0FB02CE4FF0F1
:1005C8000005E1FB02E506F00042E0FB03E54FF021
:1005D8000006E1FB03569CF0000F18BF4EF0010E19
:1005E800A4F1FF04B6F5007F64F5407404D25FEA15
:1005F8004E0E6D4146EB060642EAC62141EA5551C8
:100608004FEAC52040EA5E504FEACE2EB4F1FD0C09
:1006180088BFBCF5E06F1ED8BEF1004F08BF5FEA87
:10062800500E50F1000041EB045170BD06F0004639
:1006380046EA010140EA020081EA0301B4EB5C04E6
:10064800C2BFD4EB0C0541EA045170BD41F48011DE
:100658004FF0000E013C00F3AB8014F1360FDEBF03
:10066800002001F0004170BDC4F10004203C35DADF
:100678000C341BDC04F11404C4F1200500FA05F362
:1006880020FA04F001FA05F240EA020001F0004203
:1006980021F0004110EBD37021FA04F642EB060179
:1006A8005EEA430E08BF20EAD37070BDC4F10C04A3
:1006B800C4F1200500FA04F320FA05F001FA04F267
:1006C80040EA020001F0004110EBD37041F1000153
:1006D8005EEA430E08BF20EAD37070BDC4F120055E
:1006E80000FA05F24EEA020E20FA04F301FA05F2C6
:1006F80043EA020321FA04F001F0004121FA04F26E
:1007080020EA020000EBD3705EEA430E08BF20EA3D
:10071800D37070BD94F0000F0FD101F00046400077
:1007280041EB010111F4801F08BF013CF7D041EAF9
:10073800060195F0000F18BF704703F000465200FD
:1007480043EB030313F4801F08BF013DF7D043EACE
:100758000603704794EA0C0F0CEA135518BF95EA84
:100768000C0F0CD050EA410618BF52EA4306D1D10B
:1007780081EA030101F000414FF0000070BD50EA2A
:10078800410606BF1046194652EA430619D094EAB4
:100798000C0F02D150EA013613D195EA0C0F05D19E
:1007A80052EA03361CBF104619460AD181EA0301F2
:1007B80001F0004141F0FE4141F470014FF00000AA
:1007C80070BD41F0FE4141F4780170BD70B54FF045
:1007D800FF0C4CF4E06C1CEA11541DBF1CEA1355C5
:1007E80094EA0C0F95EA0C0F00F0A7F8A4EB0504A7
:1007F80081EA030E52EA03354FEA013100F088809E
:100808004FEA03334FF0805545EA131343EA126366
:100818004FEA022245EA111545EA10654FEA00261B
:100828000EF000419D4208BF964244F1FD0404F5D4
:10083800407402D25B084FEA3202B61A65EB030530
:100848005B084FEA32024FF480104FF4002CB6EBED
:10085800020E75EB030E22BFB61A754640EA0C006D
:100868005B084FEA3202B6EB020E75EB030E22BFAD
:10087800B61A754640EA5C005B084FEA3202B6EBEE
:10088800020E75EB030E22BFB61A754640EA9C00AD
:100898005B084FEA3202B6EB020E75EB030E22BF7D
:1008A800B61A754640EADC0055EA060E18D04FEA3B
:1008B800051545EA16754FEA06164FEAC30343EADB
:1008C80052734FEAC2025FEA1C1CC0D111F4801FA8
:1008D8000BD141EA00014FF000004FF0004CB6E7A1
:1008E80011F4801F04BF01430020B4F1FD0C88BF40
:1008F800BCF5E06F3FF6AFAEB5EB030C04BFB6EB4B
:10090800020C5FEA500C50F1000041EB045170BD3D
:100918000EF0004E4EEA113114EB5C04C2BFD4EB6A
:100928000C0541EA045170BD41F480114FF0000EEE
:10093800013C90E645EA060E8DE60CEA135594EA6A
:100948000C0F08BF95EA0C0F3FF43BAF94EA0C0F6D
:100958000AD150EA01347FF434AF95EA0C0F7FF4E2
:1009680025AF104619462CE795EA0C0F06D152EA36
:1009780003353FF4FDAE1046194622E750EA41061A
:1009880018BF52EA43067FF4C5AE50EA41047FF42B
:100998000DAF52EA43057FF4EBAE12E74FEA41028E
:1009A800B2F1E04324BFB3F5001CDCF1FE5C0DD9C5
:1009B80001F0004C4FEAC0024CEA5070B2F1004F0F
:1009C80040EB830008BF20F00100704711F0804F12
:1009D80021D113F13872BCBF01F00040704741F4D7
:1009E80080114FEA5252C2F11802C2F1200C10FADB
:1009F8000CF320FA02F018BF40F001004FEAC123BF
:100A08004FEAD32303FA0CFC40EA0C0023FA02F362
:100A18004FEA4303CCE77FEA625307D150EA013338
:100A28001EBF4FF0FE4040F44000704701F0004008
:100A380040F0FE4040F40000704700BF53B94AB987
:100A4800002908BF00281CBF4FF0FF314FF0FF30CE
:100A580000F074B9ADF1080C6DE904CE00F006F8A9
:100A6800DDF804E0DDE9022304B070472DE9F04722
:100A7800089D04468E46002B4DD18A42944669D97A
:100A8800B2FA82F252B101FA02F3C2F1200120FA5D
:100A980001F10CFA02FC41EA030E94404FEA1C48AB
:100AA800210CBEFBF8F61FFA8CF708FB16E341EAA7
:100AB800034306FB07F199420AD91CEB030306F12D
:100AC800FF3080F01F81994240F21C81023E63444E
:100AD8005B1AA4B2B3FBF8F008FB103344EA0344F2
:100AE80000FB07F7A7420AD91CEB040400F1FF3307
:100AF80080F00A81A74240F207816444023840EA44
:100B08000640E41B00261DB1D4400023C5E900437C
:100B18003146BDE8F0878B4209D9002D00F0EF80FF
:100B28000026C5E9000130463146BDE8F087B3FA32
:100B380083F6002E4AD18B4202D3824200F2F9801A
:100B4800841A61EB030301209E46002DE0D0C5E91D
:100B5800004EDDE702B9FFDEB2FA82F2002A40F069
:100B68009280A1EB0C014FEA1C471FFA8CFE01266C
:100B7800200CB1FBF7F307FB131140EA01410EFB10
:100B880003F0884208D91CEB010103F1FF3802D2B7
:100B9800884200F2CB804346091AA4B2B1FBF7F0B1
:100BA80007FB101144EA01440EFB00FEA64508D9D4
:100BB8001CEB040400F1FF3102D2A64500F2BB8011
:100BC8000846A4EB0E0440EA03409CE7C6F1200760
:100BD800B34022FA07FC4CEA030C20FA07F401FAA6
:100BE80006F31C43F9404FEA1C4900FA06F3B1FB2F
:100BF800F9F8200C1FFA8CFE09FB181140EA014194
:100C080008FB0EF0884202FA06F20BD91CEB010130
:100C180008F1FF3A80F08880884240F28580A8F188
:100C280002086144091AA4B2B1FBF9F009FB1011DA
:100C380044EA014100FB0EFE8E4508D91CEB010178
:100C480000F1FF346CD28E456AD90238614440EA1B
:100C58000840A0FB0294A1EB0E01A142C846A6469B
:100C680056D353D05DB1B3EB080261EB0E0101FA24
:100C780007F722FA06F3F1401F43C5E90071002681
:100C88003146BDE8F087C2F12003D8400CFA02FCD7
:100C980021FA03F3914001434FEA1C471FFA8CFEE7
:100CA800B3FBF7F007FB10360B0C43EA064300FBD7
:100CB8000EF69E4204FA02F408D91CEB030300F175
:100CC800FF382FD29E422DD9023863449B1B89B22C
:100CD800B3FBF7F607FB163341EA034106FB0EF3B5
:100CE8008B4208D91CEB010106F1FF3816D28B4262
:100CF80014D9023E6144C91A46EA004638E72E462E
:100D0800284605E70646E3E61846F8E64B45A9D225
:100D1800B9EB020864EB0C0E0138A3E74646EAE794
:100D2800204694E74046D1E7D0467BE7023B614442
:100D380032E7304609E76444023842E7704700BFAB
:100D480082B0B0B584B000AFF860B9607B6213467A
:100D5800FB80FB684FF47A721A60FB68BA685A60C5
:100D6800FB68FA881A81FB680C3307F124014422D6
:100D7800184605F09FFDFB68503307F17C014422BB
:100D8800184605F097FDFB6803F1940407F1680520
:100D98000FCD0FC42B682360FB68A83302219FED99
:100DA800302AF0EE001A9FED2F1AF0EE000A9FEDA0
:100DB8002E0A184605F096FBFB68A8339FED280A13
:100DC800184605F0F2FCFB683222A3F8F020FB6815
:100DD800002283F8F220FB6803F19400002300222C
:100DE800002102F018FEFB68F4338021184605F054
:100DF80011FBFB6803F5B6635522AA21184601F0DA
:100E0800F3FEFB68002283F82226FB68002283F8A1
:100E18002326FB68002283F82426FB6803F2266356
:100E28005522AA21184601F013FDFB68002283F819
:100E38009E26FB68002283F89F26FB6803F5D4638F
:100E480032220021184605F043FDFB68002283F892
:100E5800D22600BF1037BD46BDE8B04002B070478B
:100E6800000000000000C8420000484280B582B07F
:100E780000AF78607B685A687B681B891946104602
:100E880003F07DF800BF0837BD4680BD80B483B04D
:100E980000AF78607B681B6818460C37BD465DF864
:100EA800047B704780B584B000AF78607B68A83356
:100EB800184605F071FB7B68A833184605F0A9FCB5
:100EC800F0EE407AFCEEE77A17EE903AFB607B682A
:100ED80003F19400FB680022002102F09CFD00BF92
:100EE8001037BD4680BD80B582B000AF78603960EC
:100EF8007B68A8333A6807EE902AF8EE677AB0EE76
:100F0800670A184605F060FC00BF0837BD4680BD7B
:100F180080B582B000AF78607B68A833184605F0CA
:100F280069FCF0EE407AB0EE670A0837BD4680BD2E
:100F380080B58AB000AF0346FB800A237B62012399
:100F48003B62FB881846FFF7ADFA22A3D3E90023DA
:100F5800FFF712FB02460B46104619461FA3D3E9BA
:100F68000023FFF733FC02460B4610461946FFF7ED
:100F780015FD0346FB617B6A07EE903AB8EE677A87
:100F8800D7ED076AC6EE877AC7ED067A3B6A07EEA1
:100F9800903AB8EE677AD7ED066AC6EE877AC7ED5B
:100FA800057AD7ED057A9FED0A7A67EE877AC7ED5D
:100FB800047AD7ED047AFCEEE77A17EE903AFB60F4
:100FC800FB6818462837BD4680BD00BFAFF30080D8
:100FD80000007A446666666666660A40000000009D
:100FE80000FEAF4080B582B000AF786039607B68A2
:100FF800F4333A681146184605F02CFA00BF083752
:10100800BD4680BD80B582B000AF78607B68F433A0
:10101800184605F05AFA034618460837BD4680BDFB
:1010280080B582B000AF78600B46FB707B6803F236
:101038002663FA781146184601F048FC00BF0837C5
:10104800BD4680BD80B582B000AF78607B6803F292
:101058002663184601F06DFC00BF0837BD4680BD09
:1010680080B584B000AF78607B6803F226631846C9
:1010780001F0ADFD0346012B2ED17B6803F22663F8
:10108800184601F067FD0346FB737B6803F226638D
:10109800184601F090FD0346BB73BB7B002B0CD0B8
:1010A8007B6803F22663184601F079FDB860BB7BC4
:1010B8001A46B968786800F0D2FAFB7B1946786856
:1010C80000F0A0FA0121786800F0ACFA7B6803F21E
:1010D8002663184601F0F0FC00BF1037BD4680BDFE
:1010E80080B582B000AF7860786800F0ABFA03464C
:1010F800012B06D1786800F009F80021786800F023
:1011080091FA00BF0837BD4680BD000080B594B095
:1011180000AF786000237B8700233B870023A7F874
:101128004E300023BB6400237B6400233B64002310
:10113800FB6300237B634FF000033B630023FB62E8
:101148004FF00003BB6200237B624FF000033B6259
:101158000023FB614FF00003BB6100237B614FF06C
:1011680000033B610023FB604FF00003BB607B681A
:1011780093F89F36013B042B00F23A8201A252F801
:1011880023F000BFA1110008E9140008F3140008B7
:101198005D150008D11500087B6893F8A0361A067B
:1011A8007B6893F8A1361B041A447B6893F8A2362F
:1011B8001B0213447A6892F8A3261344FB62FB6A65
:1011C80007EE903AB8EE677ADFED976AC7EE267AAF
:1011D800C7ED0A7A7B68BA6AC3F8A8207B6893F8D7
:1011E800A4361A067B6893F8A5361B041A447B6854
:1011F80093F8A6361B0213447A6892F8A72613447C
:101208007B627B6A07EE903AB8EE677ADFED866A12
:10121800C7EE267AC7ED087A7B683A6AC3F8AC202D
:101228007B6893F8A8361A067B6893F8A9361B04DE
:101238001A447B6893F8AA361B0213447A6892F81A
:10124800AB261344FB61FB6907EE903AB8EE677A68
:10125800DFED756AC7EE267AC7ED067A7B68BA694C
:10126800C3F8B0207B6893F8AC369BB21B029AB2E5
:101278007B6893F8AD369BB213443B873B8F4CF2A7
:101288005032934204D83B8F1946786800F044FDE9
:101298007B6893F8AE369BB21B029AB27B6893F8D0
:1012A800AF369BB213447B877B8F4CF2503293420C
:1012B80003D87B687A8FA3F8F0207B6893F8B03660
:1012C8009BB21B029AB27B6893F8B1369BB2134467
:1012D800A7F84E30B7F84E30B3F5967F03D94FF4E0
:1012E8009673A7F84E307B68B7F84E20A3F8F6201F
:1012F8007B6893F8B2361A067B6893F8B3361B04FA
:101308001A447B6893F8B4361B0213447A6892F83F
:10131800B5261344BB64BA6C404B1344BB64BB6C26
:101328003E4A934202DA3D4BBB6405E0BB6C3C4A43
:10133800934201DD3A4BBB647B68BA6CC3F8DC208E
:101348007B6893F8B6361A067B6893F8B7361B04A1
:101358001A447B6893F8B8361B0213447A6892F8EB
:10136800B92613447B647A6C2C4B13447B647B6CE6
:101378002A4A934202DA294B7B6405E07B6C284AAF
:10138800934201DD264B7B647B687A6CC3F8E020CE
:101398007B6893F8BA361A067B6893F8BB361B0449
:1013A8001A447B6893F8BC361B0213447A6892F897
:1013B800BD2613443B643A6C184B13443B643B6CA6
:1013C800002B02DA00233B6406E03B6CB3F5805F38
:1013D80002DB40F6FF733B647B683A6CC3F8E42099
:1013E8007B6893F8BE361A067B6893F8BF361B04F1
:1013F8001A447B6893F8C0361B0213447A6892F843
:10140800C1261344FB63FA6B044B1344FB63FB6B69
:10141800002B0DDA0023FB6311E000BF003665C422
:1014280000CA9A3B0024744900007A44007C924820
:10143800FB6BB3F5805F02DB40F6FF73FB637B68F1
:10144800FA6BC3F8E8207B6893F8C2361A067B6803
:1014580093F8C3361B041A447B6893F8C4361B02FE
:1014680013447A6892F8C52613447B617B6907EEBA
:10147800903AF8EE677A1FED157A37EEC77A5FED86
:10148800166AC7EE267AC7ED047A7B683A69C3F80C
:10149800D4207B6893F8C6361A067B6893F8C7365B
:1014A8001B041A447B6893F8C8361B0213447A68F5
:1014B80092F8C9261344FB60FB6807EE903AF8EEF1
:1014C800677A1FED287A37EEC77A5FED296AC7EE8B
:1014D800267AC7ED027A7B68BA68C3F8D8208CE010
:1014E8007B68012283F8242687E07B6893F8A0367E
:1014F8001A067B6893F8A1361B041A447B6893F894
:10150800A2361B0213447A6892F8A32613447B631D
:101518007B6B07EE903AB8EE677A5FED3D6AC7EEEF
:10152800267AC7ED0C7AD7ED0C7AF5EEC07AF1EE93
:1015380010FA00DA61E0D7ED0C7A1FED447AF4EE88
:10154800C77AF1EE10FA00D957E07B683A6BC3F816
:10155800C02052E07B6893F8A036002B2AD17B6824
:10156800002283F8F2207B684FF00002C3F8C42001
:101578007B684FF00002C3F8B4207B684FF000028C
:10158800C3F8CC207B684FF00002C3F8B8207B6812
:101598004FF00002C3F8C8207B684FF00002C3F880
:1015A800BC207B6803F1940000230022002102F094
:1015B80032FA1FE07B6893F8A036012B1AD17B68BA
:1015C800012283F8F22015E07B6893F8A036002BFF
:1015D80004D17B68002283F823260DE07B6893F80A
:1015E800A036012B08D17B68012283F8232603E06B
:1015F80000BF02E000BF00E000BF00BF5037BD469B
:1016080080BD00BF80B483B000AF78600B46FB702C
:101618007B68FA7883F89F2600BF0C37BD465DF8D3
:10162800047B704780B483B000AF78600B46FB70D2
:101638007B68FA7883F89E2600BF0C37BD465DF8B4
:10164800047B704780B483B000AF78607B6893F800
:101658009E3618460C37BD465DF8047B704780B54A
:1016680084B000AFF860B9601346FB71FB79322B88
:101678000BD8FB68FA7983F8D226FB6803F5D463A4
:10168800FA79B968184605F015F900BF1037BD4654
:1016980080BD00002DE9F0479EB00EAF78606B4624
:1016A8009A462A2387F83F3097F83F100B46013BAC
:1016B800BB63CBB20022984691464FF000024FF030
:1016C80000034FEAC90343EA58734FEAC802CBB292
:1016D80000221C4615464FF000024FF00003EB00B5
:1016E80043EA5473E2000B460733DB08DB00ADEB3B
:1016F800030D0EAB00337B637B68D3ED2A7A9FED35
:10170800AF7A67EE877AFCEEE77A17EE903A3B639A
:101718007B68D3ED2B7A9FEDA97A67EE877AFCEE8A
:10172800E77A17EE903AFB627B68D3ED2C7A9FED4F
:10173800A37A67EE877AFCEEE77A17EE903ABB62F7
:101748007B68A833184605F073F8F0EE407A9FEDF1
:101758009C7A67EE877AFCEEE77A17EE903AFB847C
:101768007B68B3F8F630BB847B68D3F8DC20954BF4
:1017780013443B627B68D3F8E020924B1344FB612F
:101788007B68D3F8E4208F4B1344BB617B68D3F8A4
:10179800E8208C4B13447B617B68D3ED357A9FED51
:1017A800877A67EE877A9FED887A77EE877AFCEEFC
:1017B800E77A17EE903A3B617B68D3ED367A9FED76
:1017C8007F7A67EE877A9FED807A77EE877AFCEEEC
:1017D800E77A17EE903AFB603B6B1B0EDAB27B6B35
:1017E8001A703B6B1B0CDAB27B6B5A703B6B1B0A93
:1017F800DAB27B6B9A703B6BDAB27B6BDA70FB6A9E
:101808001B0EDAB27B6B1A71FB6A1B0CDAB27B6BAC
:101818005A71FB6A1B0ADAB27B6B9A71FB6ADAB2FD
:101828007B6BDA71BB6A1B0EDAB27B6B1A72BB6A0E
:101838001B0CDAB27B6B5A72BB6A1B0ADAB27B6B7F
:101848009A72BB6ADAB27B6BDA72FB8C1B0A9BB2A8
:10185800DAB27B6B1A73FB8CDAB27B6B5A737B68D8
:10186800B3F8F0301B0A9BB2DAB27B6B9A737B68D1
:10187800B3F8F030DAB27B6BDA73BB8C1B0A9BB21D
:10188800DAB27B6B1A74BB8CDAB27B6B5A743B6A24
:101898001B0EDAB27B6B9A743B6A1B0CDAB27B6B59
:1018A800DA743B6A1B0ADAB27B6B1A753B6ADAB2E6
:1018B8007B6B5A75FB691B0EDAB27B6B9A75FB69F9
:1018C8001B0CDAB27B6BDA75FB691B0ADAB27B6B2D
:1018D8001A76FB69DAB27B6B5A76BB691B0EDAB2F1
:1018E8007B6B9A76BB691B0CDAB27B6BDA76BB69C9
:1018F8001B0ADAB27B6B1A77BB69DAB27B6B5A7751
:101908007B691B0EDAB27B6B9A777B691B0CDAB2A8
:101918007B6BDA777B691B0ADAB27B6B83F8202052
:101928007B69DAB27B6B83F821203B691B0EDAB244
:101938007B6B83F822203B691B0CDAB27B6B83F844
:1019480023203B691B0ADAB27B6B83F824203B69AE
:10195800DAB27B6B83F82520FB681B0EDAB27B6B4F
:1019680083F82620FB681B0CDAB27B6B83F82720F0
:10197800FB681B0ADAB27B6B83F82820FB68DAB2B3
:101988007B6B83F829207B6803F5B66380211846B2
:1019980001F007FA7B6803F5B66397F83F20796B87
:1019A800184601F018FA7B6803F5B663184601F08B
:1019B8004DF97B6803F5B66C08E000BF00007A4477
:1019C80000401C4600CA9A3B002474497E686D4654
:1019D80006F118040FCC0FC50FCC0FC50FCC0FC5DF
:1019E80094E8030085E8030006F10C030ECB60467B
:1019F80001F07AF97B6803F5B663184601F0B3F98C
:101A08007B6803F5B663184601F08FF9D54600BF29
:101A18004037BD46BDE8F0872DE9F04794B00EAFDA
:101A280078606B469A460423FB75F97D0B46013BAB
:101A38003B61CBB20022984691464FF000024FF02E
:101A480000034FEAC90343EA58734FEAC802CBB20E
:101A580000221C4615464FF000024FF00003EB0031
:101A680043EA5473E2000B460733DB08DB00ADEBB7
:101A7800030D0EAB0033FB607B68D3ED307A9FED2E
:101A88002D7A67EE877AFCEEE77A17EE903ABB601C
:101A9800BB681B0EDAB2FB681A70BB681B0CDAB2A3
:101AA800FB685A70BB681B0ADAB2FB689A70BB689D
:101AB800DAB2FB68DA707B6803F5B66381211846F1
:101AC80001F06FF97B6803F5B663FA7DF96818468B
:101AD80001F081F97B6803F5B663184601F0B6F8A2
:101AE8007B6803F5B66C7E686D4606F118040FCC6A
:101AF8000FC50FCC0FC50FCC0FC594E8030085E8C0
:101B0800030006F10C030ECB604601F0EDF87B688C
:101B180003F5B663184601F026F97B6803F5B6634A
:101B2800184601F002F9D54600BF1837BD46BDE892
:101B3800F08700BF00007A442DE9F04794B00EAF5B
:101B480078606B469A467868FFF7E2F9F0EE407ADB
:101B5800FCEEE77A17EE903A7B610423FB74F97C7C
:101B68000B46013BFB60CBB20022984691464FF0F2
:101B780000024FF000034FEAC90343EA58734FEAE3
:101B8800C802CBB200221C4615464FF000024FF0A7
:101B98000003EB0043EA5473E2000B460733DB080B
:101BA800DB00ADEB030D0EAB0033BB607B691B0E96
:101BB800DAB2BB681A707B691B0CDAB2BB685A7060
:101BC8007B691B0ADAB2BB689A707B69DAB2BB68B8
:101BD800DA707B6803F5B6638221184601F0E1F8F4
:101BE8007B6803F5B663FA7CB968184601F0F3F828
:101BF8007B6803F5B663184601F028F87B6803F59F
:101C0800B66C7E686D4606F118040FCC0FC50FCC74
:101C18000FC50FCC0FC594E8030085E8030006F153
:101C28000C030ECB604601F05FF87B6803F5B663E2
:101C3800184601F098F87B6803F5B663184601F07A
:101C480074F8D54600BF1837BD46BDE8F08780B5A3
:101C580082B000AF7860786800F033F80346012B53
:101C680007D17868FFF716FD0021786800F036F88C
:101C780016E0786800F093F80346012B07D17868DE
:101C8800FFF7CAFE0021786800F096F808E0786847
:101C980000F00AF80346012B02D17868FFF74CFFE1
:101CA80000BF0837BD4680BD80B483B000AF786000
:101CB8007B6893F8233618460C37BD465DF8047BDD
:101CC800704780B483B000AF78607B6893F824369F
:101CD80018460C37BD465DF8047B704780B483B066
:101CE80000AF78600B46FB707B68FA7883F824268F
:101CF80000BF0C37BD465DF8047B704780B483B0E5
:101D080000AF78607B68B3F8F03018460C37BD46F2
:101D18005DF8047B7047000080B582B000AF786042
:101D28000B467B807B68A8337A8807EE902AF8EE0A
:101D3800677ADFED066A87EEA67AB0EE470A18469C
:101D480004F085FD00BF0837BD4680BD00401C4635
:101D580080B582B000AF78607B68A833184604F07D
:101D680067FDF0EE407A9FED067A67EE877AFCEE23
:101D7800E77A17EE903A9BB218460837BD4680BD01
:101D880000401C4680B483B000AF78607B6893F84D
:101D9800F23018460C37BD465DF8047B704780B4B6
:101DA80083B000AF78607B6893F8253618460C3707
:101DB800BD465DF8047B704780B483B000AF78609F
:101DC8000B46FB707B68FA7883F8252600BF0C3732
:101DD800BD465DF8047B704780B483B000AF78607F
:101DE8007B68134A93421DD1124B1B8801339AB268
:101DF800104B1A80104B1B8801339AB20E4B1A8075
:101E08000E4B1B8801339AB20C4B1A800C4B1B8863
:101E180001339AB20A4B1A800A4B1B8801339AB2D3
:101E2800084B1A8000BF0C37BD465DF8047B70472D
:101E38008400002056010020580100205A0100208B
:101E48005C0100205E01002080B582B000AF7860A0
:101E58007B680A4A93420DD101220949074803F0D9
:101E680040FB074B1B7819460648FFF7D9F8044B87
:101E780000221A7000BF0837BD4680BDCC00002084
:101E88005401002060010020F0B5ABB026AF00F08F
:101E9800BBFF00F0EDF800F067FA00F05BF900F026
:101EA800D5F900F00DFA00F035FA00F0A5F962480E
:101EB80002F082FE0021614801F05BFD604E614A3C
:101EC80015AB11464422184604F0F4FC5B4B10ACE9
:101ED8001D460FCD0FC42B6823606D46341D0FCCF3
:101EE8000FC50FCC0FC50FCC0FC594E80F0085E8C0
:101EF8000F003368202254495448FEF721FF01227D
:101F080053494F4803F0EDFA5048FFF7F7FE0346F0
:101F18001A46504B1B889A4223D84F4801F02AF89A
:101F28004FF0FF314C4801F02AF94B4801F0B2F963
:101F38000346FB81484801F0EFF8FB891846FEF795
:101F4800F7FFB860B9684148FFF74CF83F48FFF71A
:101F580059F8786079683D48FEF7C5FF3D4B002287
:101F68001A803A48FFF7F4FE03461A463B4B1B8893
:101F78009A420BD83548FFF705FF0346012B02D1DB
:101F88003248FEF78FFF354B00221A80344B1B78FE
:101F9800042B4BD801A252F823F000BFB91F000848
:101FA800D51F0008E31F0008F11F000817200008CC
:101FB8002C4B1B88632B05D92448FFF743F8294B82
:101FC80000221A80264B01221A7033E01F48FFF7BF
:101FD80047F8234B02221A702CE01C48FFF780F8C0
:101FE8001F4B03221A7025E01F4B1B881C461748FD
:101FF800FEF74CFF03469C4205D31448FEF736FF14
:10200800194B00221A80164B04221A7012E0174B43
:102018001B88B3F57A7F05D30C48FFF718FE134BDE
:1020280000221A800E4B00221A7003E00C4B00228B
:102038001A7000BF68E700BF84000020700000200D
:10204800CC000020100100200000024060010020A8
:10205800540100205C010020280000205E010020BF
:102068003408002056010020580100205A010020A1
:1020780080B594B000AF07F11C0334220021184644
:1020880004F026FC07F1080300221A605A609A60DF
:10209800DA601A6100237B602C4B1B6C2B4A43F0DF
:1020A80080531364294B1B6C03F080537B607B685F
:1020B80000233B60264B1B68254A43F440431360CA
:1020C800234B1B6803F440433B603B680223FB61DE
:1020D8000123BB621023FB6202237B630023BB63E3
:1020E8000823FB63B4233B6402237B640223BB64A1
:1020F8000223FB6407F11C03184602F06FFA03463B
:10210800002B01D000F082F901F054FF0346002BA8
:1021180001D000F07BF90F23BB600223FB60002392
:102128003B614FF4A0537B614FF48053BB6107F1CF
:1021380008030521184601F08DFF0346002B01D046
:1021480000F064F900BF5037BD4680BD003802403A
:102158000070004080B584B000AF3B4600221A6092
:102168005A609A60DA60214B214A1A601F4B4FF47B
:1021780080325A601D4B00229A601C4B00221A6163
:102188001A4B00221A76194B002283F82020174B8D
:102198000022DA62154B174A9A62144B0022DA6061
:1021A800124B0122DA61114B002283F830200F4BC9
:1021B80001225A610D4800F099FE0346002B01D018
:1021C80000F024F901233B6001237B600023BB60FE
:1021D8003B461946054801F06BF80346002B01D031
:1021E80000F014F900BF1037BD4680BD280000205C
:1021F800002001400100000F80B582B000AF3B46CF
:1022080000221A605A600F4B0F4A1A600D4801F0FD
:102218008EFB0346002B01D000F0F8F800233B604A
:1022280002237B603B4600221946064801F018FC51
:102238000346002B01D000F0E9F800BF0837BD467F
:1022480080BD00BF700000200074004080B584B0DD
:1022580000AF3B4600221A605A609A60DA60164B5B
:10226800164A1A60144B04225A60134B00229A60D3
:10227800114B40F65162DA600F4B00221A610E4B87
:1022880000229A610C4802F047FC0346002B01D05B
:1022980000F0BCF84FF480533B603B4619460648B3
:1022A80002F002FE0346002B01D000F0AFF800BF99
:1022B8001037BD4680BD00BF8400002000400140AB
:1022C80080B500AF114B124A1A60104B4FF4E1323F
:1022D8005A600E4B00229A600C4B0022DA600B4BBE
:1022E80000221A61094B0C225A61084B00229A619C
:1022F800064B0022DA61054803F014F80346002B68
:1023080001D000F083F800BF80BD00BFCC000020E2
:102318000044004080B500AF114B124A1A60104BC0
:102328004FF4E1325A600E4B00229A600C4B0022A7
:10233800DA600B4B00221A61094B0C225A61084BD8
:1023480000229A61064B0022DA61054802F0EAFF92
:102358000346002B01D000F059F800BF80BD00BF34
:10236800100100200048004080B588B000AF07F198
:102378000C0300221A605A609A60DA601A6100231E
:10238800BB601F4B1B6B1E4A43F0040313631C4BBB
:102398001B6B03F00403BB60BB6800237B60184B16
:1023A8001B6B174A43F001031363154B1B6B03F0B8
:1023B80001037B607B6800222021124801F0C6FDE2
:1023C8004FF40053FB6000233B6100237B6107F15E
:1023D8000C0319460C4801F025FC2023FB6001235F
:1023E8003B6100237B610023BB6107F10C031946A5
:1023F800044801F017FC00BF2037BD4680BD00BF70
:1024080000380240000002400008024080B400AFDB
:1024180072B600BFFEE7000080B483B000AF0023AF
:102428007B60104B5B6C0F4A43F4804353640D4B45
:102438005B6C03F480437B607B6800233B60094B43
:102448001B6C084A43F080531364064B1B6C03F063
:1024580080533B603B6800BF0C37BD465DF8047B8A
:10246800704700BF0038024080B58AB000AF78607E
:1024780007F1140300221A605A609A60DA601A6140
:102488007B681B68174A934227D100233B61164B90
:102498005B6C154A43F480735364134B5B6C03F411
:1024A80080733B613B690023FB600F4B1B6B0E4A3B
:1024B80043F0010313630C4B1B6B03F00103FB6038
:1024C800FB6802237B610323BB610023FB6107F1E7
:1024D80014031946054801F0A5FB00BF2837BD467F
:1024E80080BD00BF002001400038024000000240CB
:1024F80080B58AB000AF786007F1140300221A6033
:102508005A609A60DA601A617B681B68174A9342BE
:1025180027D100233B61164B1B6C154A43F000532F
:102528001364134B1B6C03F000533B613B6900239E
:10253800FB600F4B1B6B0E4A43F0010313630C4BFC
:102548001B6B03F00103FB60FB6810237B61032313
:10255800BB610023FB6107F114031946054801F02C
:1025680061FB00BF2837BD4680BD00BF0074004036
:10257800003802400000024080B584B000AF7860A7
:102588007B681B680E4A934215D10023FB600D4BF4
:102598005B6C0C4A43F4803353640A4B5B6C03F462
:1025A8008033FB60FB6800220021182001F089F9C4
:1025B800182001F0A2F900BF1037BD4680BD00BF4A
:1025C800004001400038024080B58CB000AF786010
:1025D80007F11C0300221A605A609A60DA601A61D7
:1025E8007B681B68364A934234D10023BB61354B64
:1025F8001B6C344A43F400331364324B1B6C03F4F2
:102608000033BB61BB6900237B612E4B1B6B2D4ADA
:1026180043F0010313632B4B1B6B03F001037B6136
:102628007B690C23FB6102233B6200237B6203234B
:10263800BB620723FB6207F11C031946224801F01D
:10264800F1FA00220021262001F03BF9262001F0B2
:1026580054F931E07B681B681C4A93422CD1002353
:102668003B61184B1B6C174A43F480231364154BCA
:102678001B6C03F480233B613B690023FB60114B17
:102688001B6B104A43F0040313630E4B1B6B03F0E0
:102698000403FB60FB684FF44063FB6102233B6269
:1026A80000237B620323BB620723FB6207F11C0341
:1026B8001946074801F0B6FA00BF3037BD4680BD5D
:1026C800004400400038024000000240004800403A
:1026D8000008024080B400AFFEE780B400AFFEE718
:1026E80080B400AFFEE780B400AFFEE780B400AF6F
:1026F800FEE780B400AF00BFBD465DF8047B7047BD
:1027080080B400AF00BFBD465DF8047B704780B45D
:1027180000AF00BFBD465DF8047B704780B500AFD1
:1027280000F0C4FB00BF80BD80B500AF024802F0D6
:10273800B3FA00BF80BD00BF8400002080B500AFA1
:10274800024802F0FFFE00BF80BD00BFCC000020A1
:1027580080B400AF064BD3F88830054A43F47003C1
:10276800C2F8883000BFBD465DF8047B704700BFE3
:1027780000ED00E0DFF834D00D480E490E4A002382
:1027880002E0D458C4500433C4188C42F9D30B4A1D
:102798000B4C002301E013600432A242FBD3FFF785
:1027A800D7FF04F063F8FFF76FFB704700000220C3
:1027B800000000200C000020286A00080C000020FF
:1027C8003C080020FEE780B584B000AF78600B4677
:1027D8007B800023FB730023BB730023BB730DE0D6
:1027E800BB7B7A6813441A78FB7B1146184600F0C5
:1027F8000FF80346FB73BB7B0133BB73BB7B9BB2F8
:102808007A889A42ECD8FB7B18461037BD4680BDC3
:1028180080B485B000AF03460A46FB711346BB710E
:102828000023FB73FA79BB795340FB73FB791B12C6
:102838005AB2FB7B0549CB5C5BB253405BB2DBB25F
:1028480018461437BD465DF8047B704718690008C0
:1028580080B582B000AF78600B46FB701346BB7042
:102868007B68FA781A707B68BA785A707B6800229D
:102878009A707B680022DA707B6804333222002168
:10288800184604F025F87B68002283F836207B6818
:10289800373337220021184604F01AF87B680022E3
:1028A800A3F86E207B680022A3F870207B680022C2
:1028B80083F876207B68002283F872207B680022E8
:1028C800A3F8742000BF0837BD4680BD80B582B02C
:1028D80000AF78600B46FB707B68B3F870301A461F
:1028E8007B681344FA7883F837207B68B3F8703034
:1028F80001339AB27B68A3F870207B68B3F86E3016
:1029080001339AB27B68A3F86E207B68B3F8703005
:10291800372B0AD9786800F0CFF87B680022A3F833
:1029280070207B680022A3F86E2000BF0837BD46E0
:1029380080BD80B584B000AF78607B6893F8723052
:10294800012B7ED17B68B3F8743002337A68134464
:1029580093F837301946786800F0E2F87B68B3F8E6
:10296800743003337A68134493F837207B68DA703D
:102978007B68DB78002B26D17B68B3F8743004338E
:102988007A68134493F837303B737B6837337A6837
:10299800B2F87420134404211846FFF714FF0346C5
:1029A8001A467B6883F836207B6893F836303A7B82
:1029B8009A427DD17B680022A3F870207B680122AF
:1029C80083F8762074E07B68B3F874301A467B6825
:1029D800DB78134404337A68134493F837307B73F5
:1029E8007B6837337A68B2F874201A447B68DB78DE
:1029F8009BB204339BB219461046FFF7E4FE034628
:102A08001A467B6883F836207B6893F836307A7BE1
:102A18009A424DD17B6803F137027B68B3F8743072
:102A28000433D1187B68DB781A46786800F09EF882
:102A38007B680022A3F870207B68012283F8762047
:102A480036E07B68B3F86E30042B31D90023FB8164
:102A58000023FB811EE0FB897A68134493F8372032
:102A68007B681B789A4212D1FB8901337A68134438
:102A780093F837207B685B789A4208D17B680122FB
:102A880083F872207B68FA89A3F8742008E0FB8930
:102A98000133FB817B68B3F86E30FA899A42DAD346
:102AA8007B6893F87230002B02D1786800F004F844
:102AB80000BF1037BD4680BD80B582B000AF7860DA
:102AC8007B68002283F876207B68002283F87220D6
:102AD8007B680022A3F870207B680022A3F86E2090
:102AE8007B680022DA707B6800229A707B6800227B
:102AF80083F836207B680022A3F874207B680433AF
:102B080032220021184603F0E3FE7B683733372270
:102B18000021184603F0DCFE00BF0837BD4680BD23
:102B280080B483B000AF78600B46FB707B680022EE
:102B380083F87620FB78002B06D0FB78FF2B03D098
:102B48007B68FA789A7000E000BF0C37BD465DF8E4
:102B5800047B704780B483B000AF78607B689B7853
:102B680018460C37BD465DF8047B704780B584B0C5
:102B780000AFF860B9601346FB71FB68002283F868
:102B88007620FB680433FA79B968184603F092FE98
:102B9800FB68FA79DA7000BF1037BD4680BD80B493
:102BA80083B000AF78607B68043318460C37BD46A5
:102BB8005DF8047B704780B483B000AF78607B68B1
:102BC800DB7818460C37BD465DF8047B704780B447
:102BD80083B000AF78607B6893F8763018460C377E
:102BE800BD465DF8047B704780B582B000AF786061
:102BF8000B46FB701346BB707B68FA781A707B68CB
:102C0800BA785A707B6800229A707B680022DA7062
:102C18007B68043332220021184603F059FE7B6892
:102C2800002283F836207B68373337220021184684
:102C380003F04EFE7B680022A3F86E207B6800221A
:102C480083F8702000BF0837BD4680BD80B582B0CC
:102C580000AF78607B681A787B6883F837207B68D8
:102C68005A787B6883F838207B689A787B6883F881
:102C780039207B68DA787B6883F83A207B683733B9
:102C8800181D7B68191D7B68DB781A4603F012FE55
:102C98007B68DB789BB205339AB27B68A3F86E2019
:102CA8007B6803F137027B68B3F86E30013B9BB257
:102CB80019461046FFF787FD03461A467B6883F8D6
:102CC80036207B68DB7804337A6892F836107A68A5
:102CD80013440A4683F837207B68012283F8702062
:102CE80000BF0837BD4680BD84B080B582B000AF54
:102CF800786007F1140080E80E007B6893F8703064
:102D0800012B0BD17B6803F137017B68B3F86E2088
:102D180007F114004FF0FF3302F051FB00BF0837F2
:102D2800BD46BDE8804004B0704780B582B000AFB2
:102D380078607B68002283F870207B680022A3F803
:102D48006E207B68002283F836207B6800229A7008
:102D58007B68373337220021184603F0B9FD00BFDE
:102D68000837BD4680BD80B582B000AF78607B680B
:102D7800002283F870207B680022A3F86E207B680D
:102D8800002283F836207B6800229A707B6804331F
:102D980032220021184603F09BFD00BF0837BD46CC
:102DA80080BD80B483B000AF78600B46FB707B6851
:102DB800002283F87020FB78002B06D0FB78FF2BCD
:102DC80003D07B68FA789A7000E000BF0C37BD46E4
:102DD8005DF8047B704780B584B000AFF860B960D7
:102DE8001346FB71FB68002283F87020FB680433EC
:102DF800FA79B968184603F05DFDFB68FA79DA706C
:102E080000BF1037BD4680BD80B500AF0E4B1B68B4
:102E18000D4A43F4007313600B4B1B680A4A43F4D2
:102E280080631360084B1B68074A43F48073136080
:102E3800032000F03BFD0F2000F008F8FFF7ECFA44
:102E48000023184680BD00BF003C024080B582B018
:102E580000AF7860124B1A68124B1B7819464FF472
:102E68007A73B3FBF1F3B2FBF3F3184600F053FDAA
:102E78000346002B01D001230EE07B680F2B0AD8F4
:102E8800002279684FF0FF3000F01BFD064A7B688E
:102E98001360002300E0012318460837BD4680BDB3
:102EA80000000020080000200400002080B400AFCB
:102EB800064B1B781A46064B1B681344044A1360DA
:102EC80000BFBD465DF8047B704700BF08000020C6
:102ED8003808002080B400AF034B1B681846BD4675
:102EE8005DF8047B704700BF3808002080B584B0C7
:102EF80000AF78600023FB737B68002B01D10123AE
:102F080033E07B681B6C002B09D17868FFF7ACFABB
:102F18007B6800225A647B68002283F83C207B6827
:102F28001B6C03F01003002B18D17B681B6C23F477
:102F3800885323F0020343F002027B681A6478681E
:102F480000F0E8FA7B6800225A647B681B6C23F067
:102F5800030343F001027B681A6401E00123FB7359
:102F68007B68002283F83C20FB7B18461037BD465F
:102F780080BD000080B485B000AF78600023BB60DE
:102F88007B6893F83C30012B01D10223B2E07B68C7
:102F9800012283F83C207B681B689B6803F00103CF
:102FA800012B18D07B681B689A687B681B6842F005
:102FB80001029A60524B1B68524AA2FB03239A0CE7
:102FC80013465B001344BB6002E0BB68013BBB6077
:102FD800BB68002BF9D17B681B689B6803F0010371
:102FE800012B7AD17B681B6C23F4E06323F0010387
:102FF80043F480727B681A647B681B685B6803F41F
:103008008063002B07D07B681B6C23F4405343F488
:1030180080527B681A647B681B6C03F48053B3F599
:10302800805F06D17B685B6C23F006027B685A647C
:1030380002E07B6800225A647B68002283F83C2007
:10304800314BFB607B681B686FF022021A60FB68DB
:103058005B6803F01F03002B2AD17B681B682B4A8F
:10306800934215D07B681B68294A934205D1264BA9
:103078005B6803F01F03002B0AD07B681B68254A96
:10308800934236D1204B5B6803F01003002B30D1FC
:103098007B681B689B6803F04053002B29D17B6831
:1030A8001B689A687B681B6842F080429A6020E03F
:1030B8007B681B68154A93421BD17B681B689B6819
:1030C80003F04053002B14D17B681B689A687B6817
:1030D8001B6842F080429A600BE07B681B6C43F0EF
:1030E80010027B681A647B685B6C43F001027B68A2
:1030F8005A64002318461437BD465DF8047B7047B0
:103108000000002083DE1B43002301400020014013
:10311800002101400022014080B483B000AF7860F4
:103128007B6893F83C30012B01D1022321E07B68B6
:10313800012283F83C207B681B689A687B681B68BF
:1031480022F001029A607B681B689B6803F0010308
:10315800002B09D17B681B6C23F4885323F00103EF
:1031680043F001027B681A647B68002283F83C20E4
:10317800002318460C37BD465DF8047B704780B5C0
:1031880084B000AF786039600023FB607B681B68FF
:103198009B6803F48063B3F5806F13D17B681B6869
:1031A8009B6803F48073B3F5807F0BD17B681B6C3D
:1031B80043F020027B681A647B68002283F83C2075
:1031C800012363E0FFF786FEF86021E03B68B3F176
:1031D800FF3F1DD03B68002B07D0FFF77BFE024660
:1031E800FB68D31A3A689A4212D27B681B681B683C
:1031F80003F00203022B0BD07B681B6C43F0040224
:103208007B681A647B68002283F83C2003233DE036
:103218007B681B681B6803F00203022BD6D17B680E
:103228001B686FF012021A607B681B6C43F4007213
:103238007B681A647B681B689B6803F04053002B0B
:1032480023D17B681B7E002B1FD17B681B68DB6A40
:1032580003F47003002B06D07B681B689B6803F49B
:103268008063002B11D17B681B6C23F480727B6810
:103278001A647B681B6C03F48053002B05D17B68B0
:103288001B6C43F001027B681A6400231846103750
:10329800BD4680BD80B483B000AF78607B681B6892
:1032A800DB6C18460C37BD465DF8047B70470000A0
:1032B80080B485B000AF786039600023BB607B685C
:1032C80093F83C30012B01D1022313E17B680122E2
:1032D80083F83C203B681B68092B25D97B681B6851
:1032E800D9683B681B689BB21A4613465B001344B7
:1032F8001E3B072202FA03F3DA437B681B680A4085
:10330800DA607B681B68D9683B689A683B681B6809
:103318009BB2184603465B0003441E3B9A407B68F9
:103328001B680A43DA6022E07B681B6819693B68FE
:103338001B689BB21A4613465B001344072202FA25
:1033480003F3DA437B681B680A401A617B681B68D1
:1033580019693B689A683B681B689BB21846034624
:103368005B0003449A407B681B680A431A613B6808
:103378005B68062B24D87B681B68596B3B685A68C6
:1033880013469B001344053B1F2202FA03F3DA435A
:103398007B681B680A405A637B681B68596B3B68EB
:1033A8001B689BB218463B685A6813469B00134437
:1033B800053B00FA03F27B681B680A435A634CE03A
:1033C8003B685B680C2B24D87B681B68196B3B68CF
:1033D8005A6813469B001344233B1F2202FA03F347
:1033E800DA437B681B680A401A637B681B68196BA1
:1033F8003B681B689BB218463B685A6813469B009B
:103408001344233B00FA03F27B681B680A431A63E0
:1034180023E07B681B68D96A3B685A6813469B009F
:103428001344413B1F2202FA03F3DA437B681B680B
:103438000A40DA627B681B68D96A3B681B689BB2E2
:1034480018463B685A6813469B001344413B00FAF0
:1034580003F27B681B680A43DA62294BFB607B68CE
:103468001B68284A93420FD13B681B68122B0BD16B
:10347800FB685B6823F40002FB685A60FB685B68C2
:1034880043F48002FB685A607B681B681D4A9342BC
:103498002BD13B681B681C4A934203D03B681B68CE
:1034A800112B22D1FB685B6823F48002FB685A6009
:1034B800FB685B6843F40002FB685A603B681B6862
:1034C800114A934211D1114B1B68114AA2FB0323E5
:1034D8009A0C13469B0013445B00BB6002E0BB6878
:1034E800013BBB60BB68002BF9D17B68002283F8E5
:1034F8003C20002318461437BD465DF8047B70470E
:1035080000230140002001401200001000000020AC
:1035180083DE1B4380B485B000AF7860794BFB60D5
:10352800FB685B6823F44032FB685A60FB685A68A2
:103538007B685B681A43FB685A607B681B685A683B
:103548007B681B6822F480725A607B681B68596824
:103558007B681B691A027B681B680A435A607B6890
:103568001B685A687B681B6822F040725A607B6847
:103578001B6859687B689A687B681B680A435A60AD
:103588007B681B689A687B681B6822F400629A60F3
:103598007B681B6899687B68DA687B681B680A43E4
:1035A8009A607B689B6A584A934222D07B681B6862
:1035B8009A687B681B6822F070629A607B681B6857
:1035C80099687B689A6A7B681B680A439A607B687B
:1035D8001B689A687B681B6822F040529A607B6877
:1035E8001B6899687B68DA6A7B681B680A439A607B
:1035F8000FE07B681B689A687B681B6822F0706222
:103608009A607B681B689A687B681B6822F0405246
:103618009A607B681B689A687B681B6822F00202C4
:103628009A607B681B6899687B681B7E5A007B6878
:103638001B680A439A607B6893F82030002B1BD0E4
:103648007B681B685A687B681B6842F400625A6092
:103658007B681B685A687B681B6822F460425A6062
:103668007B681B6859687B685B6A013B5A037B6807
:103678001B680A435A6007E07B681B685A687B68C6
:103688001B6822F400625A607B681B68DA6A7B68F0
:103698001B6822F47002DA627B681B68D96A7B684F
:1036A800DB69013B1A057B681B680A43DA627B68A1
:1036B8001B689A687B681B6822F400729A607B68B2
:1036C8001B6899687B6893F830305A027B681B68DE
:1036D8000A439A607B681B689A687B681B6822F4B7
:1036E80080629A607B681B6899687B685B699A024C
:1036F8007B681B680A439A6000BF1437BD465DF8B3
:10370800047B7047002301400100000F80B485B09E
:1037180000AF78607B6803F00703FB600C4BDB6845
:10372800BB60BA684FF6FF031340BB60FB681A0220
:10373800BB68134343F0BF6343F40033BB60044AE0
:10374800BB68D36000BF1437BD465DF8047B704783
:1037580000ED00E080B400AF044BDB681B0A03F007
:1037680007031846BD465DF8047B704700ED00E08E
:1037780080B483B000AF0346FB7197F90730002B84
:103788000BDBFB7903F01F02074997F907305B0948
:10379800012000FA02F241F8232000BF0C37BD4691
:1037A8005DF8047B704700BF00E100E080B483B09F
:1037B80000AF03463960FB7197F90730002B0ADB2D
:1037C8003B68DAB20C4997F907301201D2B20B44C0
:1037D80083F800230AE03B68DAB20849FB7903F072
:1037E8000F03043B1201D2B20B441A7600BF0C3708
:1037F800BD465DF8047B704700E100E000ED00E0A5
:1038080080B489B000AFF860B9607A60FB6803F0F3
:103818000703FB61FB69C3F10703042B28BF0423DB
:10382800BB61FB690433062B02D9FB69033B00E04B
:1038380000237B614FF0FF32BB6902FA03F3DA43DE
:10384800BB681A407B699A404FF0FF317B6901FAE7
:1038580003F3D9437B680B40134318462437BD460E
:103868005DF8047B7047000080B582B000AF7860D7
:103878007B68013BB3F1807F01D301230FE00A4A43
:103888007B68013B53600F214FF0FF30FFF78EFF3D
:10389800054B00229A60044B07221A600023184641
:1038A8000837BD4680BD00BF10E000E080B582B09B
:1038B80000AF78607868FFF729FF00BF0837BD467A
:1038C80080BD80B586B000AF0346B9607A60FB73EF
:1038D80000237B61FFF73EFF78617A68B9687869F1
:1038E800FFF78EFF024697F90F3011461846FFF78B
:1038F8005DFF00BF1837BD4680BD80B582B000AF00
:103908000346FB7197F907301846FFF731FF00BFF0
:103918000837BD4680BD80B582B000AF7860786852
:10392800FFF7A2FF034618460837BD4680BD80B59D
:1039380082B000AF78607B68002B01D1012314E0CE
:103948007B681B79DBB2002B05D17B6800225A719A
:103958007868FEF7CDFD7B6802221A717B68002229
:103968001A617B6801221A71002318460837BD4680
:1039780080BD80B483B000AF786039607B685B79C4
:10398800012B01D1022340E07B6801225A717B6838
:1039980002221A717B681B6819683B6803F01003E0
:1039A80001229A407B681B680A431A603B68002B17
:1039B8000FD17B681B681B6803F03C033C2B1DD1AF
:1039C8007B681B685A687B681B6842F001025A6072
:1039D80014E07B681B681B6803F470123B6803F0F3
:1039E80010033C2101FA03F39A4207D17B681B6854
:1039F8005A687B681B6842F002025A607B680122A1
:103A08001A717B6800225A71002318460C37BD468C
:103A18005DF8047B704780B487B000AFF860B96088
:103A28007A603B6000237B61FB681B687B61BB6835
:103A3800002B05D17A697B68134408337B6104E065
:103A48007A697B68134414337B617B691A463B6847
:103A58001360002318461C37BD465DF8047B704789
:103A680080B487B000AFF860B9607A60FB685B79B2
:103A7800012B01D102233CE0FB6801225A71FB684B
:103A880002221A71FB681B681B687B617B6803F064
:103A9800100340F6FE7202FA03F3DB437A6913401F
:103AA8007B61BB681A68BB685B6813433B617B68D2
:103AB80003F010033A6902FA03F37A6913437B614E
:103AC800FB681B687A691A60FB681B6819687B6861
:103AD80003F01003C02202FA03F3DA43FB681B6801
:103AE8000A401A60FB6801221A71FB6800225A71A9
:103AF800002318461C37BD465DF8047B704780B527
:103B080084B000AF78607B689B6DFB60FFF7E2F9DB
:103B1800B8607B6893F83530DBB2022B08D07B683D
:103B280080225A657B68002283F83420012352E002
:103B38007B681B681A687B681B6822F016021A608B
:103B48007B681B685A697B681B6822F080025A618F
:103B58007B681B6C002B03D17B689B6C002B07D008
:103B68007B681B681A687B681B6822F008021A6069
:103B78007B681B681A687B681B6822F001021A6060
:103B880013E0FFF7A7F90246BB68D31A052B0CD937
:103B98007B6820225A657B68032283F835207B687E
:103BA800002283F83420032315E07B681B681B6818
:103BB80003F00103002BE4D17B68DB6D3F229A40C0
:103BC800FB689A607B68012283F835207B680022B5
:103BD80083F83420002318461037BD4680BD80B4D2
:103BE80083B000AF78607B6893F83530DBB2022B86
:103BF80004D07B6880225A6501230CE07B6805228B
:103C080083F835207B681B681A687B681B6822F07C
:103C180001021A60002318460C37BD465DF8047B84
:103C28007047000080B489B000AF78603960002325
:103C38007B6100233B610023BB610023FB6165E1DD
:103C48000122FB6902FA03F37B613B681B687A690E
:103C580013403B613A697B699A4240F054813B6862
:103C68005B6803F00303012B05D03B685B6803F036
:103C78000303022B30D17B689B68BB61FB695B0047
:103C8800032202FA03F3DB43BA691340BB613B68C2
:103C9800DA68FB695B0002FA03F3BA691343BB6194
:103CA8007B68BA699A607B685B68BB610122FB69C3
:103CB80002FA03F3DB43BA691340BB613B685B68F4
:103CC8001B0903F00102FB6902FA03F3BA69134303
:103CD800BB617B68BA695A603B685B6803F00303A1
:103CE800032B17D07B68DB68BB61FB695B00032291
:103CF80002FA03F3DB43BA691340BB613B689A6875
:103D0800FB695B0002FA03F3BA691343BB617B6882
:103D1800BA69DA603B685B6803F00303022B23D1BE
:103D2800FB69DA087B68083253F82230BB61FB690B
:103D380003F007039B000F2202FA03F3DB43BA697F
:103D48001340BB613B681A69FB6903F007039B00DA
:103D580002FA03F3BA691343BB61FB69DA087B68AB
:103D68000832B96943F822107B681B68BB61FB699C
:103D78005B00032202FA03F3DB43BA691340BB6119
:103D88003B685B6803F00302FB695B0002FA03F31C
:103D9800BA691343BB617B68BA691A603B685B68A0
:103DA80003F44033002B00F0AE800023FB605D4B32
:103DB8005B6C5C4A43F4804353645A4B5B6C03F47A
:103DC8008043FB60FB68584AFB699B08023352F842
:103DD8002330BB61FB6903F003039B000F2202FA47
:103DE80003F3DB43BA691340BB617B684F4A9342D4
:103DF80025D07B684E4A93421FD07B684D4A934238
:103E080019D07B684C4A934213D07B684B4A934243
:103E18000DD07B684A4A934207D07B68494A93424F
:103E280001D106230CE007230AE0052308E0042358
:103E380006E0032304E0022302E0012300E000235C
:103E4800FA6902F0030292009340BA691343BB6116
:103E58003549FB699B080233BA6941F823203A4B7C
:103E68009B68BB613B69DB43BA691340BB613B6834
:103E78005B6803F48013002B03D0BA693B691343D2
:103E8800BB61314ABB6993602F4BDB68BB613B69FF
:103E9800DB43BA691340BB613B685B6803F40013FA
:103EA800002B03D0BA693B691343BB61264ABB693F
:103EB800D360254B5B68BB613B69DB43BA69134040
:103EC800BB613B685B6803F40033002B03D0BA691D
:103ED8003B691343BB611C4ABB6953601A4B1B689F
:103EE800BB613B69DB43BA691340BB613B685B68F4
:103EF80003F48033002B03D0BA693B691343BB61D9
:103F0800114ABB691360FB690133FB61FB690F2B25
:103F18007FF696AE00BF00BF2437BD465DF8047B30
:103F2800704700BF003802400038014000000240DE
:103F38000004024000080240000C02400010024049
:103F48000014024000180240003C014080B483B0D5
:103F580000AF78600B467B8013467B707B78002B24
:103F680003D07A887B689A6103E07B881A047B68AF
:103F78009A6100BF0C37BD465DF8047B704780B47A
:103F880085B000AF78600B467B807B685B69FB601F
:103F98007A88FB6813401A04FB68D9437B880B4076
:103FA8001A437B689A6100BF1437BD465DF8047BED
:103FB8007047000080B582B000AF00237B6000230B
:103FC8003B60204B1B6C1F4A43F0805313641D4B0E
:103FD8001B6C03F080533B603B681B4B01221A604B
:103FE800FEF778FF786009E0FEF774FF02467B6809
:103FF800D31AB3F57A7F01D903231FE0134B5B680B
:1040080003F48033B3F5803FEED1114B01221A60DF
:10401800FEF760FF786009E0FEF75CFF02467B6808
:10402800D31AB3F57A7F01D9032307E0074B5B68FE
:1040380003F40033B3F5003FEED1002318460837E8
:10404800BD4680BD0038024040000E42007000406E
:1040580044000E4280B584B000AF786039607B6858
:10406800002B01D10123CCE0684B1B6803F00F0340
:104078003A689A420CD9654B3A68D2B21A70634BC7
:104088001B6803F00F033A689A4201D00123B8E095
:104098007B681B6803F00203002B20D07B681B6839
:1040A80003F00403002B05D0594B9B68584A43F48E
:1040B800E05393607B681B6803F00803002B05D06E
:1040C800534B9B68524A43F460439360504B9B6840
:1040D80023F0F0027B689B684D4913438B607B6833
:1040E8001B6803F00103002B44D07B685B68012B3D
:1040F80007D1474B1B6803F40033002B19D1012368
:104108007FE07B685B68022B03D07B685B68032BCE
:1041180007D13F4B1B6803F00073002B09D1012323
:104128006FE03B4B1B6803F00203002B01D1012316
:1041380067E0374B9B6823F003027B685B68344970
:1041480013438B60FEF7C6FEF8600AE0FEF7C2FE76
:104158000246FB68D31A41F28832934201D90323FD
:104168004FE02B4B9B6803F00C027B685B689B005D
:104178009A42EBD1254B1B6803F00F033A689A4229
:104188000CD2224B3A68D2B21A70204B1B6803F04B
:104198000F033A689A4201D0012332E07B681B681A
:1041A80003F00403002B08D0194B9B6823F4E0525A
:1041B8007B68DB68164913438B607B681B6803F0D8
:1041C8000803002B09D0124B9B6823F460427B68DC
:1041D8001B69DB000E4913438B6000F055F802465B
:1041E8000B4B9B681B0903F00F030A49CB5C22FAAF
:1041F80003F3094A1360094B1B681846FEF726FEAD
:10420800002318461037BD4680BD00BF003C024061
:104218000038024000690008000000200400002067
:1042280080B400AF034B1B681846BD465DF8047B9D
:10423800704700BF0000002080B500AFFFF7F0FF17
:104248000246054B9B689B0A03F007030349CB5CB6
:1042580022FA03F3184680BD0038024010690008AE
:1042680080B500AFFFF7DCFF0246054B9B685B0B90
:1042780003F007030349CB5C22FA03F3184680BD19
:1042880000380240106900082DE9B04FA6B000AF11
:104298000023C7F88C300023C7F894300023C7F8F0
:1042A80088300023C7F884300023C7F89030C84B03
:1042B8009B6803F00C030C2B00F27E8101A252F8DC
:1042C80023F000BF01430008C1450008C1450008AC
:1042D800C145000809430008C1450008C145000858
:1042E800C145000811430008C1450008C145000840
:1042F800C14500087B440008B64BC7F890305FE121
:10430800B54BC7F890305BE1B14B5B6803F03F03F6
:10431800C7F88C30AE4B5B6803F48003002B31D0B8
:10432800AB4B5B689B090022BB66FA66BB6EC3F3A6
:1043380008033B6600237B66A74BD7E918452A4646
:1043480003FB02F20023214601FB03F31344A24AB4
:104358002146A1FB0212FA670A46BA67FA6F1344AC
:10436800FB67D7F88C300022BB65FA65D7E91623BE
:10437800D7E91E01FCF762FB02460B461346C7F855
:10438800943064E0924B5B689B0900223B657A6538
:104398003B6DC3F30803BB640023FB64D7E91245F4
:1043A80022462B464FF000004FF00001590141EA28
:1043B800D261500102460B462146511A39612946FD
:1043C80063EB01037B614FF000024FF00003D7E974
:1043D80004AB59468B01514643EA916351468A0121
:1043E8005146B2EB0108594663EB01094FF0000250
:1043F8004FF000034FEAC90343EA58734FEAC80273
:1044080090469946234618EB0303BB602B4649EBBD
:104418000303FB604FF000024FF00003D7E90245A9
:1044280029468B02214643EA915321468A021046C7
:104438001946D7F88C3000223B647A64D7E91023F8
:10444800FCF7FCFA02460B461346C7F89430604B5B
:104458005B681B0C03F0030301335B00C7F888306B
:10446800D7F89420D7F88830B2FBF3F3C7F8903028
:10447800A6E0574B5B6803F03F03C7F88C30544BFA
:104488005B6803F48003002B2AD0514B5B689B09BF
:104498000022BB63FA63BB6BC3F3080000214E4BD9
:1044A80003FB01F2002300FB03F313444A4AA0FB79
:1044B80002127A670A463A677A6F13447B67D7F81D
:1044C8008C3000223B637A63D7E90C23D7E91C01BF
:1044D800FCF7B4FA02460B461346C7F894305BE083
:1044E8003B4B5B689B090022BB62FA62BB6AC3F361
:1044F80008033B6200237B62D7E9088942464B46A2
:104508004FF000004FF00001590141EAD26150011B
:1045180002460B464146B2EB010A494663EB010BE2
:104528004FF000024FF000034FEA8B1343EA9A63FF
:104538004FEA8A12B2EB0A0463EB0B054FF0000254
:104548004FF00003EB0043EA5473E20014461D46A3
:104558004346E3183B604B4645EB03037B604FF053
:1045680000024FF00003D7E9004529468B02214697
:1045780043EA915321468A0210461946D7F88C30EF
:104588000022BB61FA61D7E90623FCF757FA024615
:104598000B461346C7F894300D4B5B681B0F03F0AE
:1045A8000703C7F88430D7F89420D7F88430B2FBD3
:1045B800F3F3C7F8903003E0064BC7F8903000BF1C
:1045C800D7F8903018469837BD46BDE8B08F00BF81
:1045D800003802400024F40040787D0180B586B0A0
:1045E80000AF78607B68002B01D101238DE27B68E6
:1045F8001B6803F00103002B00F08380944B9B6839
:1046080003F00C03042B19D0914B9B6803F00C03A7
:10461800082B06D18E4B5B6803F48003B3F5800F3B
:104628000CD08B4B9B6803F00C030C2B12D1884BDE
:104638005B6803F48003B3F5800F0BD1844B1B68D0
:1046480003F40033002B5BD07B685B68002B57D1E9
:1046580001235AE27B685B68B3F5803F06D17C4B47
:104668001B687B4A43F4803313601DE07B685B68FA
:10467800B3F5A02F0CD1764B1B68754A43F4802301
:104688001360734B1B68724A43F4803313600BE06A
:104698006F4B1B686E4A23F4803313606C4B1B68A6
:1046A8006B4A23F4802313607B685B68002B13D06C
:1046B800FEF710FC386108E0FEF70CFC02463B6987
:1046C800D31A642B01D903231FE2614B1B6803F43F
:1046D8000033002BF0D014E0FEF7FCFB386108E053
:1046E800FEF7F8FB02463B69D31A642B01D9032372
:1046F8000BE2574B1B6803F40033002BF0D100E0AA
:1047080000BF7B681B6803F00203002B6FD0504B7F
:104718009B6803F00C03002B17D04D4B9B6803F0EC
:104728000C03082B05D14A4B5B6803F48003002B6C
:104738000BD0474B9B6803F00C030C2B1CD1444B4C
:104748005B6803F48003002B16D1414B1B6803F010
:104758000203002B05D07B68DB68012B01D0012305
:10476800D3E13B4B1B6823F0F8027B681B69DB0035
:10477800374913430B603AE07B68DB68002B20D095
:10478800344B01221A60FEF7A5FB386108E0FEF7FA
:10479800A1FB02463B69D31A022B01D90323B4E1DA
:1047A8002B4B1B6803F00203002BF0D0284B1B682F
:1047B80023F0F8027B681B69DB00254913430B6073
:1047C80015E0244B00221A60FEF784FB386108E0EC
:1047D800FEF780FB02463B69D31A022B01D903235B
:1047E80093E11B4B1B6803F00203002BF0D17B689D
:1047F8001B6803F00803002B36D07B685B69002B2D
:1048080016D0154B01221A60FEF764FB386108E0E8
:10481800FEF760FB02463B69D31A022B01D903233A
:1048280073E10B4B5B6F03F00203002BF0D01BE02E
:10483800094B00221A60FEF74DFB38610EE0FEF7C7
:1048480049FB02463B69D31A022B07D903235CE1D3
:104858000038024000004742800E47428A4B5B6F97
:1048680003F00203002BEAD17B681B6803F0040302
:10487800002B00F097800023FB75834B1B6C03F023
:104888008053002B0FD10023BB607F4B1B6C7E4AEB
:1048980043F0805313647C4B1B6C03F08053BB6064
:1048A800BB680123FB75794B1B6803F48073002BED
:1048B80018D1764B1B68754A43F480731360FEF772
:1048C80009FB386108E0FEF705FB02463B69D31A8D
:1048D800022B01D9032318E16C4B1B6803F4807386
:1048E800002BF0D07B689B68012B06D1664B1B6FB1
:1048F800654A43F0010313671CE07B689B68052B3E
:104908000CD1614B1B6F604A43F0040313675E4B85
:104918001B6F5D4A43F0010313670BE05A4B1B6F93
:10492800594A23F001031367574B1B6F564A23F06C
:10493800040313677B689B68002B15D0FEF7CAFA3F
:1049480038610AE0FEF7C6FA02463B69D31A41F21B
:104958008832934201D90323D7E04B4B1B6F03F0F6
:104968000203002BEED014E0FEF7B4FA38610AE037
:10497800FEF7B0FA02463B69D31A41F288329342F5
:1049880001D90323C1E0404B1B6F03F00203002B46
:10499800EED1FB7D012B05D13B4B1B6C3A4A23F032
:1049A800805313647B689B69002B00F0AD80364B05
:1049B8009B6803F00C03082B60D07B689B69022B73
:1049C80045D1334B00221A60FEF784FA386108E0BB
:1049D800FEF780FA02463B69D31A022B01D903235A
:1049E80093E0294B1B6803F00073002BF0D17B6820
:1049F800DA697B681B6A1A437B685B6A9B011A4306
:104A08007B689B6A5B08013B1B041A437B68DB6A73
:104A18001B061A437B681B6B1B071B4913434B6020
:104A28001B4B01221A60FEF755FA386108E0FEF7C1
:104A380051FA02463B69D31A022B01D9032364E0D9
:104A4800114B1B6803F00073002BF0D05CE0104B97
:104A580000221A60FEF73EFA386108E0FEF73AFADB
:104A680002463B69D31A022B01D903234DE0064BBA
:104A78001B6803F00073002BF0D145E07B689B694D
:104A8800012B07D1012340E00038024000700040AC
:104A9800600047421F4B5B68FB607B689B69012B8A
:104AA80030D0FB6803F480027B68DB699A4229D125
:104AB800FB6803F03F027B681B6A9A4222D1FA68BE
:104AC80047F6C07313407A68526A9201934219D12B
:104AD800FB6803F440327B689B6A5B08013B1B045C
:104AE8009A420FD1FB6803F070627B68DB6A1B0691
:104AF8009A4207D1FB6803F0E0427B681B6B1B07F7
:104B08009A4201D0012300E0002318461837BD4619
:104B180080BD00BF0038024080B582B000AF786029
:104B28007B68002B01D1012341E07B6893F83D307D
:104B3800DBB2002B06D17B68002283F83C20786822
:104B4800FDF71AFD7B68022283F83D207B681A680E
:104B58007B6804331946104600F096FA7B680122F8
:104B680083F846207B68012283F83E207B68012277
:104B780083F83F207B68012283F840207B6801226C
:104B880083F841207B68012283F842207B68012258
:104B980083F843207B68012283F844207B68012244
:104BA80083F845207B68012283F83D2000231846BE
:104BB8000837BD4680BD000080B485B000AF78607E
:104BC8007B6893F83D30DBB2012B01D001234EE026
:104BD8007B68022283F83D207B681B68DA687B6863
:104BE8001B6842F00102DA607B681B68234A934223
:104BF80022D07B681B68B3F1804F1DD07B681B688F
:104C08001F4A934218D07B681B681E4A934213D0F0
:104C18007B681B681C4A93420ED07B681B681B4A42
:104C2800934209D07B681B68194A934204D07B6879
:104C38001B68184A934211D17B681B689B6803F074
:104C48000703FB60FB68062B10D07B681B681A689B
:104C58007B681B6842F001021A6007E07B681B68EA
:104C68001A687B681B6842F001021A600023184624
:104C78001437BD465DF8047B704700BF0000014053
:104C88000004004000080040000C004000040140FF
:104C9800004001400018004080B582B000AF786045
:104CA8007B681B681B6903F00203022B22D17B6817
:104CB8001B68DB6803F00203022B1BD17B681B68AF
:104CC8006FF002021A617B6801221A777B681B6801
:104CD8009B6903F00303002B03D0786800F0B5F953
:104CE80005E0786800F0A7F9786800F0B8F97B6803
:104CF80000221A777B681B681B6903F00403042BE6
:104D080022D17B681B68DB6803F00403042B1BD1EA
:104D18007B681B686FF004021A617B6802221A77AD
:104D28007B681B689B6903F44073002B03D0786889
:104D380000F08BF905E0786800F07DF9786800F0FC
:104D48008EF97B6800221A777B681B681B6903F061
:104D58000803082B22D17B681B68DB6803F0080373
:104D6800082B1BD17B681B686FF008021A617B68EF
:104D780004221A777B681B68DB6903F00303002BA6
:104D880003D0786800F061F905E0786800F053F91D
:104D9800786800F064F97B6800221A777B681B68E2
:104DA8001B6903F01003102B22D17B681B68DB689A
:104DB80003F01003102B1BD17B681B686FF01002E7
:104DC8001A617B6808221A777B681B68DB6903F421
:104DD8004073002B03D0786800F037F905E0786855
:104DE80000F029F9786800F03AF97B6800221A7710
:104DF8007B681B681B6903F00103012B0ED17B68DC
:104E08001B68DB6803F00103012B07D17B681B6873
:104E18006FF001021A617868FCF7DEFF7B681B6897
:104E28001B6903F08003802B0ED17B681B68DB684D
:104E380003F08003802B07D17B681B686FF080022A
:104E48001A61786800F064FA7B681B681B6903F0D4
:104E58004003402B0ED17B681B68DB6803F04003DE
:104E6800402B07D17B681B686FF040021A61786895
:104E780000F0FFF87B681B681B6903F02003202BF8
:104E88000ED17B681B68DB6803F02003202B07D159
:104E98007B681B686FF020021A61786800F02EFAB0
:104EA80000BF0837BD4680BD80B584B000AF7860CC
:104EB80039600023FB737B6893F83C30012B01D1E8
:104EC8000223B4E07B68012283F83C207B6802223D
:104ED80083F83D207B681B689B68BB60BB6823F038
:104EE8007703BB60BB6823F47F43BB607B681B68A8
:104EF800BA689A603B681B68B3F5005F3ED0B3F5AB
:104F0800005F00F28780B3F5805F00F08680B3F51C
:104F1800805F7FD8702B1AD0702B7BD8602B50D035
:104F2800602B77D8502B3CD0502B73D8402B58D0BF
:104F3800402B6FD8302B64D0302B6BD8202B60D00F
:104F4800202B67D8002B5CD0102B5AD062E07B68EE
:104F580018683B6899683B685A683B68DB6800F0EA
:104F6800ADF97B681B689B68BB60BB6843F077033F
:104F7800BB607B681B68BA689A604FE07B681868FA
:104F88003B6899683B685A683B68DB6800F096F9AB
:104F98007B681B689A687B681B6842F480429A6049
:104FA8003CE07B6818683B6859683B68DB681A46D0
:104FB80000F00AF97B681B685021184600F063F975
:104FC8002CE07B6818683B6859683B68DB681A46C0
:104FD80000F029F97B681B686021184600F053F936
:104FE8001CE07B6818683B6859683B68DB681A46B0
:104FF80000F0EAF87B681B684021184600F043F986
:105008000CE07B681A683B681B681946104600F07C
:105018003AF903E00123FB7300E000BF7B6801223B
:1050280083F83D207B68002283F83C20FB7B1846F0
:105038001037BD4680BD80B483B000AF786000BF34
:105048000C37BD465DF8047B704780B483B000AF71
:10505800786000BF0C37BD465DF8047B704780B4AC
:1050680083B000AF786000BF0C37BD465DF8047BA5
:10507800704780B483B000AF786000BF0C37BD467E
:105088005DF8047B7047000080B485B000AF78609D
:1050980039607B681B68FB607B68404A934213D089
:1050A8007B68B3F1804F0FD07B683D4A93420BD0A9
:1050B8007B683C4A934207D07B683B4A934203D0C3
:1050C8007B683A4A934208D1FB6823F07003FB607F
:1050D8003B685B68FA681343FB607B682F4A93421E
:1050E8002BD07B68B3F1804F27D07B682C4A934242
:1050F80023D07B682B4A93421FD07B682A4A93426D
:105108001BD07B68294A934217D07B68284A934270
:1051180013D07B68274A93420FD07B68264A934274
:105128000BD07B68254A934207D07B68244A934278
:1051380003D07B68234A934208D1FB6823F4407369
:10514800FB603B68DB68FA681343FB60FB6823F08D
:1051580080023B685B691343FB607B68FA681A60EE
:105168003B689A687B68DA623B681A687B689A626F
:105178007B680A4A934203D07B680C4A934203D166
:105188003B681A697B681A637B6801225A6100BF11
:105198001437BD465DF8047B704700BF000001402E
:1051A8000004004000080040000C004000040140DA
:1051B8000040014000440140004801400018004000
:1051C800001C00400020004080B487B000AFF860A9
:1051D800B9607A60FB681B6A7B61FB681B6A23F015
:1051E8000102FB681A62FB689B693B613B6923F01B
:1051F800F0033B617B681B013A6913433B617B69A0
:1052080023F00A037B617A69BB6813437B61FB68FF
:105218003A699A61FB687A691A6200BF1C37BD4611
:105228005DF8047B704780B487B000AFF860B96060
:105238007A60FB681B6A23F01002FB681A62FB683D
:105248009B697B61FB681B6A3B617B6923F4704344
:105258007B617B681B037A6913437B613B6923F09D
:10526800A0033B61BB681B013A6913433B61FB68C0
:105278007A699A61FB683A691A6200BF1C37BD46B1
:105288005DF8047B704780B485B000AF7860396002
:105298007B689B68FB60FB6823F07003FB603A68DF
:1052A800FB68134343F00703FB607B68FA689A6066
:1052B80000BF1437BD465DF8047B704780B487B0E3
:1052C80000AFF860B9607A603B60FB689B687B61FF
:1052D8007B6923F47F437B613B681A027B681A432E
:1052E800BB6813437A6913437B61FB687A699A60E8
:1052F80000BF1C37BD465DF8047B704780B483B09F
:1053080000AF786000BF0C37BD465DF8047B70477E
:1053180080B483B000AF786000BF0C37BD465DF83D
:10532800047B704780B582B000AF78607B68002B43
:1053380001D101233FE07B6893F83D30DBB2002BBD
:1053480006D17B68002283F83C207868FDF73CF999
:105358007B68242283F83D207B681B68DA687B68B9
:105368001B6822F40052DA60786800F0DFFD7B6881
:105378001B681A697B681B6822F490421A617B6873
:105388001B685A697B681B6822F02A025A617B688D
:105398001B68DA687B681B6842F40052DA607B6835
:1053A80000221A647B68202283F83D207B68202233
:1053B80083F83E20002318460837BD4680BD80B5D7
:1053C8008AB002AFF860B9603B601346FB800023E7
:1053D8007B61FB6893F83D30DBB2202B7CD1BB6846
:1053E800002B02D0FB88002B01D1012375E0FB685C
:1053F80093F83C30012B01D102236EE0FB680122B7
:1054080083F83C20FB6800221A64FB68212283F899
:105418003D20FDF75FFD7861FB68FA889A84FB6898
:10542800FA88DA84FB689B68B3F5805F08D1FB686B
:105438001B69002B04D10023FB61BB68BB6103E03F
:10544800BB68FB610023BB61FB68002283F83C203A
:105458002AE03B6800937B6900228021F86800F00D
:105468001FFB0346002B01D0032336E0FB69002B0A
:105478000BD1BB691B881A46FB681B68C2F308027C
:105488005A60BB690233BB6107E0FB691A78FB68A5
:105498001B685A60FB690133FB61FB68DB8C9BB2BC
:1054A800013B9AB2FB68DA84FB68DB8C9BB2002B69
:1054B800CFD13B6800937B6900224021F86800F057
:1054C800EFFA0346002B01D0032306E0FB682022F5
:1054D80083F83D20002300E0022318462037BD460C
:1054E80080BD80B584B000AFF860B9601346FB801A
:1054F800FB6893F83E30DBB2202B1DD1BB68002B34
:1055080002D0FB88002B01D1012316E0FB6893F839
:105518003C30012B01D102230FE0FB68012283F804
:105528003C20FB6800221A63FB881A46B968F868B1
:1055380000F024FB034600E0022318461037BD465E
:1055480080BD000080B5BAB000AF78607B681B688A
:105558001B68C7F8E4307B681B68DB68C7F8E03075
:105568007B681B685B69C7F8DC300023C7F8D83054
:105578000023C7F8D430D7F8E43003F00F03C7F896
:10558800D830D7F8D830002B0FD1D7F8E43003F053
:105598002003002B09D0D7F8E03003F02003002BBC
:1055A80003D0786800F007FC56E2D7F8D830002B13
:1055B80000F0DE80D7F8DC3003F00103002B06D1C1
:1055C800D7F8E03003F49073002B00F0D180D7F8BF
:1055D800E43003F00103002B0BD0D7F8E03003F4DC
:1055E8008073002B05D07B681B6C43F001027B683D
:1055F8001A64D7F8E43003F00403002B0BD0D7F873
:10560800DC3003F00103002B05D07B681B6C43F0F2
:1056180002027B681A64D7F8E43003F00203002B17
:105628000BD0D7F8DC3003F00103002B05D07B68E2
:105638001B6C43F004027B681A64D7F8E43003F06B
:105648000803002B11D0D7F8E03003F02003002B1B
:1056580005D1D7F8DC3003F00103002B05D07B68B7
:105668001B6C43F008027B681A647B681B6C002B78
:1056780000F0ED81D7F8E43003F02003002B08D0C8
:10568800D7F8E03003F02003002B02D0786800F050
:1056980092FB7B681B685B6903F04003402B0CBFDF
:1056A80001230023DBB2C7F8D4307B681B6C03F0FE
:1056B8000803002B03D1D7F8D430002B4FD07868DB
:1056C80000F09AFA7B681B685B6903F04003402B83
:1056D80041D17B681B681433C7F89C30D7F89C30DD
:1056E80053E8003FC7F89830D7F8983023F04003C4
:1056F800C7F8D0307B681B681433D7F8D020C7F8B8
:10570800A820C7F8A430D7F8A410D7F8A82041E8F3
:105718000023C7F8A030D7F8A030002BD9D17B6878
:105728009B6B002B13D07B689B6B7D4A1A657B684B
:105738009B6B1846FEF753FA0346002B16D07B687E
:105748009B6B1B6D7A68926B104698470EE07868E1
:1057580000F090F90AE0786800F08CF906E07868C3
:1057680000F088F97B6800221A6470E100BF6EE1DE
:105778007B681B6B012B40F04A81D7F8E43003F0BB
:105788001003002B00F04381D7F8E03003F010033A
:10579800002B00F03C810023BB607B681B681B6802
:1057A800BB607B681B685B68BB60BB687B681B6809
:1057B8005B6903F04003402B40F0B4807B689B6B2F
:1057C8001B685B68A7F8BE30B7F8BE30002B00F046
:1057D80040817B689B8DB7F8BE209A4280F0398162
:1057E8007B68B7F8BE20DA857B689B6BDB69B3F50D
:1057F800807F00F088807B681B680C33C7F888308E
:10580800D7F8883053E8003FC7F88430D7F8843099
:1058180023F48073C7F8B8307B681B680C33D7F85B
:10582800B820C7F89420C7F89030D7F89010D7F868
:10583800942041E80023C7F88C30D7F88C30002B2F
:10584800D9D17B681B6814337B677B6F53E8003FB3
:105858003B673B6F23F00103C7F8B4307B681B68D4
:105868001433D7F8B420C7F88020FB67F96FD7F84E
:10587800802041E80023BB67BB6F002BE1D17B6828
:105888001B6814333B663B6E53E8003FFB65FB6DBA
:1058980023F04003C7F8B0307B681B681433D7F88F
:1058A800B020FA66BB66B96EFA6E41E800237B66E3
:1058B8007B6E002BE3D17B68202283F83E207B6837
:1058C80000221A637B681B680C33FB64FB6C53E88B
:1058D800003FBB64BB6C23F01003C7F8AC307B6897
:1058E8001B680C33D7F8AC20BA657B65796DBA6D47
:1058F80041E800233B653B6D002BE3D17B689B6B44
:105908001846FEF7FCF87B689A8D7B68DB8D9BB2A6
:10591800D31A9BB21946786800F0B6F899E000BF30
:10592800C75C00087B689A8D7B68DB8D9BB2D31AB5
:10593800A7F8CE307B68DB8D9BB2002B00F08B8004
:10594800B7F8CE30002B00F086807B681B680C33DC
:10595800BB63BB6B53E8003F7B637B6B23F49073A3
:10596800C7F8C8307B681B680C33D7F8C8207A643E
:105978003B64396C7A6C41E80023FB63FB6B002BBA
:10598800E3D17B681B6814337B627B6A53E8003F72
:105998003B623B6A23F00103C7F8C4307B681B688D
:1059A8001433D7F8C4203A63FB62F96A3A6B41E8CA
:1059B8000023BB62BB6A002BE3D17B68202283F8FB
:1059C8003E207B6800221A637B681B680C333B61AE
:1059D8003B6953E8003FFB60FB6823F01003C7F8FE
:1059E800C0307B681B680C33D7F8C020FA61BB61F4
:1059F800B969FA6941E800237B617B69002BE3D12F
:105A0800B7F8CE301946786800F03EF823E0D7F8AA
:105A1800E43003F08003002B09D0D7F8E03003F01E
:105A28008003002B03D0786800F05DF914E0D7F804
:105A3800E43003F04003002B0ED0D7F8E03003F039
:105A48004003002B08D0786800F09DF904E000BFFF
:105A580002E000BF00E000BFE837BD4680BD00BFE0
:105A680080B483B000AF786000BF0C37BD465DF8E6
:105A7800047B704780B483B000AF786000BF0C37F8
:105A8800BD465DF8047B704780B483B000AF786092
:105A98000B467B8000BF0C37BD465DF8047B704722
:105AA80080B590B000AFF860B9603B601346FB71F9
:105AB80050E0BB6CB3F1FF3F4CD0BB6C002B07D060
:105AC800FDF708FA02463B68D31ABA6C9A4241D2EB
