:020000040800F2
:1000000000000220B9300008193000081F30000835
:10001000253000082B3000083130000800000000B7
:100020000000000000000000000000003730000861
:10003000453000080000000053300008613000081F
:1000400009310008093100080931000809310008A8
:100050000931000809310008093100080931000898
:100060000931000809310008093100080931000888
:100070000931000809310008093100080931000878
:100080000931000809310008093100080931000868
:100090000931000809310008093100080931000858
:1000A0006D300008093100080931000809310008E5
:1000B0000931000809310008093100080931000838
:1000C0000931000809310008093100080931000828
:1000D00009310008093100088130000809310008A1
:1000E0000931000809310008093100080931000808
:1000F00009310008093100080931000809310008F8
:1001000009310008093100080931000809310008E7
:1001100009310008093100080931000809310008D7
:1001200009310008093100080931000809310008C7
:10013000093100080000000000000000093100083B
:1001400009310008093100080931000809310008A7
:100150000931000809310008093100080931000897
:100160000931000809310008093100080931000887
:1001700009310008093100080931000800000000B9
:10018000000000000931000800000000000000002D
:1001900009310008000000000000000009310008DB
:1001A000000000000000000000000000093100080D
:1001B0000931000809310008093100080931000837
:0401C00009310008F9
:1001C80010B5054C237833B9044B13B10448AFF389
:1001D80000800123237010BD0C00002000000000E7
:1001E8004475000808B5034B1BB103490348AFF336
:1001F800008008BD000000001000002044750008C1
:1002080081F0004102E000BF83F0004330B54FEABF
:1002180041044FEA430594EA050F08BF90EA020F2C
:100228001FBF54EA000C55EA020C7FEA645C7FEABF
:10023800655C00F0E2804FEA5454D4EB5555B8BFE2
:100248006D420CDD2C4480EA020281EA030382EA53
:10025800000083EA010180EA020281EA0303362DE5
:1002680088BF30BD11F0004F4FEA01314FF4801CB8
:100278004CEA113102D0404261EB410113F0004FCA
:100288004FEA03334CEA133302D0524263EB430381
:1002980094EA050F00F0A780A4F10104D5F1200E1F
:1002A8000DDB02FA0EFC22FA05F2801841F100017A
:1002B80003FA0EF2801843FA05F359410EE0A5F14E
:1002C80020050EF1200E012A03FA0EFC28BF4CF07F
:1002D800020C43FA05F3C01851EBE37101F0004535
:1002E80007D54FF0000EDCF1000C7EEB00006EEB42
:1002F8000101B1F5801F1BD3B1F5001F0CD34908CC
:100308005FEA30004FEA3C0C04F101044FEA445222
:1003180012F5800F80F09A80BCF1004F08BF5FEAA9
:10032800500C50F1000041EB045141EA050130BD89
:100338005FEA4C0C404141EB0101013C28BFB1F59B
:10034800801FE9D291F0000F04BF01460020B1FAE6
:1003580081F308BF2033A3F10B03B3F120020CDAB9
:100368000C3208DD02F1140CC2F10C0201FA0CF097
:1003780021FA02F10CE002F11402D8BFC2F1200CFC
:1003880001FA02F120FA0CFCDCBF41EA0C019040B2
:10039800E41AA2BF01EB0451294330BD6FEA0404FB
:1003A8001F3C1CDA0C340EDC04F11404C4F12002E6
:1003B80020FA04F001FA02F340EA030021FA04F3F8
:1003C80045EA030130BDC4F10C04C4F1200220FA4F
:1003D80002F001FA04F340EA0300294630BD21FA8D
:1003E80004F0294630BD94F0000F83F4801306BF53
:1003F80081F480110134013D4EE77FEA645C18BF47
:100408007FEA655C29D094EA050F08BF90EA020FDD
:1004180005D054EA000C04BF1946104630BD91EAD5
:10042800030F1EBF0021002030BD5FEA545C05D1D8
:100438004000494128BF41F0004130BD14F5800417
:100448003CBF01F5801130BD01F0004545F0FE418B
:1004580041F470014FF0000030BD7FEA645C1ABFC0
:10046800194610467FEA655C1CBF0B46024650EAF7
:10047800013406BF52EA033591EA030F41F4002123
:1004880030BD00BF90F0000F04BF0021704730B5A9
:100498004FF4806404F132044FF000054FF000017E
:1004A80050E700BF90F0000F04BF0021704730B53F
:1004B8004FF4806404F1320410F0004548BF404214
:1004C8004FF000013EE700BF42004FEAE2014FEA69
:1004D80031014FEA02701FBF12F07F4393F07F4F44
:1004E80081F06051704732F07F4208BF704793F047
:1004F8007F4F04BF41F40021704730B54FF460745A
:1005080001F0004521F000411CE700BF50EA01025C
:1005180008BF704730B54FF000050AE050EA010205
:1005280008BF704730B511F0004502D5404261EB75
:1005380041014FF4806404F132045FEA915C3FF4B6
:10054800D8AE4FF003025FEADC0C18BF03325FEA53
:10055800DC0C18BF033202EBDC02C2F1200300FA04
:1005680003FC20FA02F001FA03FE40EA0E0021FA29
:1005780002F11444BDE600BF70B54FF0FF0C4CF417
:10058800E06C1CEA11541DBF1CEA135594EA0C0FC9
:1005980095EA0C0F00F0DEF82C4481EA030621EA04
:1005A8004C5123EA4C5350EA013518BF52EA03353F
:1005B80041F4801143F4801338D0A0FB02CE4FF0F1
:1005C8000005E1FB02E506F00042E0FB03E54FF021
:1005D8000006E1FB03569CF0000F18BF4EF0010E19
:1005E800A4F1FF04B6F5007F64F5407404D25FEA15
:1005F8004E0E6D4146EB060642EAC62141EA5551C8
:100608004FEAC52040EA5E504FEACE2EB4F1FD0C09
:1006180088BFBCF5E06F1ED8BEF1004F08BF5FEA87
:10062800500E50F1000041EB045170BD06F0004639
:1006380046EA010140EA020081EA0301B4EB5C04E6
:10064800C2BFD4EB0C0541EA045170BD41F48011DE
:100658004FF0000E013C00F3AB8014F1360FDEBF03
:10066800002001F0004170BDC4F10004203C35DADF
:100678000C341BDC04F11404C4F1200500FA05F362
:1006880020FA04F001FA05F240EA020001F0004203
:1006980021F0004110EBD37021FA04F642EB060179
:1006A8005EEA430E08BF20EAD37070BDC4F10C04A3
:1006B800C4F1200500FA04F320FA05F001FA04F267
:1006C80040EA020001F0004110EBD37041F1000153
:1006D8005EEA430E08BF20EAD37070BDC4F120055E
:1006E80000FA05F24EEA020E20FA04F301FA05F2C6
:1006F80043EA020321FA04F001F0004121FA04F26E
:1007080020EA020000EBD3705EEA430E08BF20EA3D
:10071800D37070BD94F0000F0FD101F00046400077
:1007280041EB010111F4801F08BF013CF7D041EAF9
:10073800060195F0000F18BF704703F000465200FD
:1007480043EB030313F4801F08BF013DF7D043EACE
:100758000603704794EA0C0F0CEA135518BF95EA84
:100768000C0F0CD050EA410618BF52EA4306D1D10B
:1007780081EA030101F000414FF0000070BD50EA2A
:10078800410606BF1046194652EA430619D094EAB4
:100798000C0F02D150EA013613D195EA0C0F05D19E
:1007A80052EA03361CBF104619460AD181EA0301F2
:1007B80001F0004141F0FE4141F470014FF00000AA
:1007C80070BD41F0FE4141F4780170BD70B54FF045
:1007D800FF0C4CF4E06C1CEA11541DBF1CEA1355C5
:1007E80094EA0C0F95EA0C0F00F0A7F8A4EB0504A7
:1007F80081EA030E52EA03354FEA013100F088809E
:100808004FEA03334FF0805545EA131343EA126366
:100818004FEA022245EA111545EA10654FEA00261B
:100828000EF000419D4208BF964244F1FD0404F5D4
:10083800407402D25B084FEA3202B61A65EB030530
:100848005B084FEA32024FF480104FF4002CB6EBED
:10085800020E75EB030E22BFB61A754640EA0C006D
:100868005B084FEA3202B6EB020E75EB030E22BFAD
:10087800B61A754640EA5C005B084FEA3202B6EBEE
:10088800020E75EB030E22BFB61A754640EA9C00AD
:100898005B084FEA3202B6EB020E75EB030E22BF7D
:1008A800B61A754640EADC0055EA060E18D04FEA3B
:1008B800051545EA16754FEA06164FEAC30343EADB
:1008C80052734FEAC2025FEA1C1CC0D111F4801FA8
:1008D8000BD141EA00014FF000004FF0004CB6E7A1
:1008E80011F4801F04BF01430020B4F1FD0C88BF40
:1008F800BCF5E06F3FF6AFAEB5EB030C04BFB6EB4B
:10090800020C5FEA500C50F1000041EB045170BD3D
:100918000EF0004E4EEA113114EB5C04C2BFD4EB6A
:100928000C0541EA045170BD41F480114FF0000EEE
:10093800013C90E645EA060E8DE60CEA135594EA6A
:100948000C0F08BF95EA0C0F3FF43BAF94EA0C0F6D
:100958000AD150EA01347FF434AF95EA0C0F7FF4E2
:1009680025AF104619462CE795EA0C0F06D152EA36
:1009780003353FF4FDAE1046194622E750EA41061A
:1009880018BF52EA43067FF4C5AE50EA41047FF42B
:100998000DAF52EA43057FF4EBAE12E74FEA41028E
:1009A800B2F1E04324BFB3F5001CDCF1FE5C0DD9C5
:1009B80001F0004C4FEAC0024CEA5070B2F1004F0F
:1009C80040EB830008BF20F00100704711F0804F12
:1009D80021D113F13872BCBF01F00040704741F4D7
:1009E80080114FEA5252C2F11802C2F1200C10FADB
:1009F8000CF320FA02F018BF40F001004FEAC123BF
:100A08004FEAD32303FA0CFC40EA0C0023FA02F362
:100A18004FEA4303CCE77FEA625307D150EA013338
:100A28001EBF4FF0FE4040F44000704701F0004008
:100A380040F0FE4040F40000704700BF53B94AB987
:100A4800002908BF00281CBF4FF0FF314FF0FF30CE
:100A580000F074B9ADF1080C6DE904CE00F006F8A9
:100A6800DDF804E0DDE9022304B070472DE9F04722
:100A7800089D04468E46002B4DD18A42944669D97A
:100A8800B2FA82F252B101FA02F3C2F1200120FA5D
:100A980001F10CFA02FC41EA030E94404FEA1C48AB
:100AA800210CBEFBF8F61FFA8CF708FB16E341EAA7
:100AB800034306FB07F199420AD91CEB030306F12D
:100AC800FF3080F01F81994240F21C81023E63444E
:100AD8005B1AA4B2B3FBF8F008FB103344EA0344F2
:100AE80000FB07F7A7420AD91CEB040400F1FF3307
:100AF80080F00A81A74240F207816444023840EA44
:100B08000640E41B00261DB1D4400023C5E900437C
:100B18003146BDE8F0878B4209D9002D00F0EF80FF
:100B28000026C5E9000130463146BDE8F087B3FA32
:100B380083F6002E4AD18B4202D3824200F2F9801A
:100B4800841A61EB030301209E46002DE0D0C5E91D
:100B5800004EDDE702B9FFDEB2FA82F2002A40F069
:100B68009280A1EB0C014FEA1C471FFA8CFE01266C
:100B7800200CB1FBF7F307FB131140EA01410EFB10
:100B880003F0884208D91CEB010103F1FF3802D2B7
:100B9800884200F2CB804346091AA4B2B1FBF7F0B1
:100BA80007FB101144EA01440EFB00FEA64508D9D4
:100BB8001CEB040400F1FF3102D2A64500F2BB8011
:100BC8000846A4EB0E0440EA03409CE7C6F1200760
:100BD800B34022FA07FC4CEA030C20FA07F401FAA6
:100BE80006F31C43F9404FEA1C4900FA06F3B1FB2F
:100BF800F9F8200C1FFA8CFE09FB181140EA014194
:100C080008FB0EF0884202FA06F20BD91CEB010130
:100C180008F1FF3A80F08880884240F28580A8F188
:100C280002086144091AA4B2B1FBF9F009FB1011DA
:100C380044EA014100FB0EFE8E4508D91CEB010178
:100C480000F1FF346CD28E456AD90238614440EA1B
:100C58000840A0FB0294A1EB0E01A142C846A6469B
:100C680056D353D05DB1B3EB080261EB0E0101FA24
:100C780007F722FA06F3F1401F43C5E90071002681
:100C88003146BDE8F087C2F12003D8400CFA02FCD7
:100C980021FA03F3914001434FEA1C471FFA8CFEE7
:100CA800B3FBF7F007FB10360B0C43EA064300FBD7
:100CB8000EF69E4204FA02F408D91CEB030300F175
:100CC800FF382FD29E422DD9023863449B1B89B22C
:100CD800B3FBF7F607FB163341EA034106FB0EF3B5
:100CE8008B4208D91CEB010106F1FF3816D28B4262
:100CF80014D9023E6144C91A46EA004638E72E462E
:100D0800284605E70646E3E61846F8E64B45A9D225
:100D1800B9EB020864EB0C0E0138A3E74646EAE794
:100D2800204694E74046D1E7D0467BE7023B614442
:100D380032E7304609E76444023842E7704700BFAB
:100D480082B0F0B5A5B020AFF860B960FB62134679
:100D5800FB80FB684FF47A721A60FB68BA685A60C5
:100D6800FB68FA881A81FB6803F10C060EA807F1E4
:100D780084034422194606F0CBFB6D4607F138047C
:100D88000FCC0FC50FCC0FC50FCC0FC594E80300CF
:100D980085E8030007F12C030ECB304600F050FB2A
:100DA800FB6803F5DC746A4607F17C0393E80300EB
:100DB80082E8030007F170030ECB204601F080FAA9
:100DC800FB6803F506738021184605F0C1FF00BFD4
:100DD8001437BD46BDE8F04002B0704780B582B018
:100DE80000AF78607B685A687B681B891946104693
:100DF80003F063FD00BF0837BD4680BD80B483B0F3
:100E080000AF78607B681B6818460C37BD465DF8F4
:100E1800047B704780B582B000AF78607B6803F5CB
:100E2800DC73184601F090FA00BF0837BD4680BD54
:100E380080B58AB000AF0346FB800A237B6201239A
:100E48003B62FB881846FFF72DFB22A3D3E900235A
:100E5800FFF792FB02460B46104619461FA3D3E93B
:100E68000023FFF7B3FC02460B4610461946FFF76E
:100E780095FD0346FB617B6A07EE903AB8EE677A08
:100E8800D7ED076AC6EE877AC7ED067A3B6A07EEA2
:100E9800903AB8EE677AD7ED066AC6EE877AC7ED5C
:100EA800057AD7ED057A9FED0A7A67EE877AC7ED5E
:100EB800047AD7ED047AFCEEE77A17EE903AFB60F5
:100EC800FB6818462837BD4680BD00BFAFF30080D9
:100ED80000007A446666666666660A40000000009E
:100EE80000FEAF4080B582B000AF786039607B68A3
:100EF80003F506733A681146184605F049FF00BF26
:100F08000837BD4680BD80B582B000AF78607B6889
:100F180003F50673184605F076FF034618460837AA
:100F2800BD4680BD80B582B000AF78600B46FB70CF
:100F38007B680C33FA781146184600F081FE00BF32
:100F48000837BD4680BD80B582B000AF78607B6849
:100F58000C33184600F085FE00BF0837BD4680BD3B
:100F680080B582B000AF78607B680C33184600F01B
:100F780085FE00BF0837BD4680BD80B582B000AF92
:100F880078607B680C337968184600F0B2FE00BFC1
:100F98000837BD4680BD80B582B000AF78607B68F9
:100FA8000C337968184600F098FA00BF0837BD4638
:100FB80080BD80B582B000AF78607B6803F5DC73D4
:100FC800184601F0E0F9F0EE407AB0EE670A08370B
:100FD800BD4680BD80B582B000AF786087ED000A5D
:100FE8007B6803F5DC7397ED000A184601F0DAF91F
:100FF80000BF0837BD4680BD80B582B000AF7860BD
:101008007B6803F5DC73184601F0DCF9F0EE407AF2
:10101800B0EE670A0837BD4680BD80B582B000AF24
:10102800786087ED000A7B6803F5DC7397ED000AAA
:10103800184601F0D6F900BF0837BD4680BD80B517
:1010480082B000AF78607B6803F5DC73184601F066
:10105800D8F9F0EE407AB0EE670A0837BD4680BD91
:1010680080B582B000AF786087ED000A7B6803F531
:10107800DC7397ED000A184601F0D2F900BF083773
:10108800BD4680BD80B582B000AF78607B6803F54F
:10109800DC73184601F0D4F9F0EE407A9FED067A39
:1010A80067EE877AFCEEE77A17EE903A9BB218461D
:1010B8000837BD4680BD00BF00401C4680B582B0E1
:1010C80000AF78600B467B807B884CF250329342AD
:1010D80010D87B6803F5DC737A8807EE902AF8EE5F
:1010E800677ADFED066A87EEA67AB0EE470A1846F9
:1010F80001F0B5F900BF0837BD4680BD00401C4669
:1011080080B582B000AF78607B6803F5DC73184661
:1011180001F0B5F9034618460837BD4680BD80B5CD
:1011280082B000AF786039607B6803F5DC7339689A
:10113800184601F0B1F900BF0837BD4680BD80B53B
:1011480082B000AF78607B6803F5DC73184601F065
:10115800B1F9034618460837BD4680BD80B582B050
:1011680000AF786039607B6803F5DC73396818462E
:1011780001F0ADF900BF0837BD4680BD80B582B02B
:1011880000AF78607B6803F5DC73184601F0ADF9B1
:10119800034618460837BD4680BD80B582B000AF0B
:1011A800786039607B6803F5DC733968184601F0AC
:1011B800A9F900BF0837BD4680BD80B582B000AF31
:1011C80078607B6803F5DC73184601F0A9F90346DB
:1011D80018460837BD4680BD80B582B000AF78603C
:1011E80039607B6803F5DC733968184601F0A5F9A6
:1011F80000BF0837BD4680BD80B582B000AF7860BB
:101208007B6803F5DC73184601F0A5F9F0EE407A27
:10121800B0EE670A0837BD4680BD80B582B000AF22
:10122800786087ED000A7B6803F5DC7397ED000AA8
:10123800184601F09FF900BF0837BD4680BD80B54C
:1012480082B000AF78607B6803F5DC73184601F064
:10125800A1F9F0EE407AB0EE670A0837BD4680BDC6
:1012680080B582B000AF786087ED000A7B6803F52F
:10127800DC7397ED000A184601F09BF900BF0837A8
:10128800BD4680BD80B582B000AF78607B6803F54D
:10129800DC73184601F09DF9F0EE407AB0EE670A6B
:1012A8000837BD4680BD000080B582B000AF7860C9
:1012B80087ED000AD7ED007AF5EEC07AF1EE10FA64
:1012C80000DA17E0D7ED007A9FED0C7AF4EEC77AD2
:1012D800F1EE10FA00D90DE07B6803F5DC7397EDA9
:1012E800000A184601F084F97B680C33012118467E
:1012F80000F06FFF00BF0837BD4680BD007C9248F4
:1013080080B582B000AF78607B6803F5DC7318465F
:1013180001F07EF9F0EE407AB0EE670A0837BD4674
:1013280080BD80B582B000AF786039607B6803F516
:10133800DC733A6807EE902AF8EE677AB0EE670A2F
:10134800184601F074F900BF0837BD4680BD80B566
:1013580082B000AF78607B6803F5DC73184601F053
:1013680076F9034618460837BD4680BD80B582B079
:1013780000AF78600B46FB707B6803F5DC73FA7886
:101388001146184601F070F900BF0837BD4680BD08
:1013980080B582B000AF78607B6803F5DC731846CF
:1013A80001F07FF9034618460837BD4680BD80B571
:1013B80082B000AF78600B467B807B884CF250325D
:1013C800934207D87B6803F5DC737A881146184680
:1013D80001F074F900BF0837BD4680BD80B582B002
:1013E80000AF78607B6803F50673184605F018FDB2
:1013F800034618460837BD4680BD80B582B000AFA9
:1014080078600B467B807B6803F506737A88114603
:10141800184605F011FD00BF0837BD4680BD80B5F0
:1014280082B000AF78600B46FB707B680C33FA78AB
:101438001146184600F0EAFE00BF0837BD4680BDD9
:1014480084B080B582B000AF786007F1140080E8FE
:101458000E007B68184607F114034422194606F06B
:1014680057F87B68443307F158014422184606F0C0
:101478004FF87B6888335522AA21184602F052F8A3
:101488000021786800F06BFE0021786800F084FE87
:101498000021786800F09DFE0021786800F0B6FE13
:1014A8007B68FE335522AA21184601F06FFE002101
:1014B800786800F0C8FE0021786800F0E1FE7868DE
:1014C80000F0AEFB0021786800F0EAFE00BF0837A4
:1014D800BD46BDE8804004B0704780B582B000AF1B
:1014E80078603960786800F04AFE0346012B08D11D
:1014F8003968786800F032F80021786800F04CFE0E
:1015080027E0786800F058FE0346012B08D13968B7
:10151800786800F0E3F90021786800F05AFE18E0D6
:10152800786800F066FE0346012B08D139687868B0
:1015380000F060FA0021786800F068FE09E0786839
:1015480000F000FE0346012B03D13968786800F0EB
:10155800C7FA00BF0837BD4680BD00002DE9F04737
:101568009EB00EAF786039606B469A462A2387F89A
:101578003F3097F83F100B46013BBB63CBB20022CC
:10158800984691464FF000024FF000034FEAC90316
:1015980043EA58734FEAC802CBB200221C461546EC
:1015A8004FF000024FF00003EB0043EA5473E200EF
:1015B8000B460733DB08DB00ADEB030D0EAB003346
:1015C8007B633868FFF7F5FCF0EE407A9FEDAD7A63
:1015D80067EE877AFCEEE77A17EE903A3B63386855
:1015E800FFF70AFDF0EE407A9FEDA67A67EE877A5C
:1015F800FCEEE77A17EE903AFB623868FFF71FFDBA
:10160800F0EE407A9FED9F7A67EE877AFCEEE77AF4
:1016180017EE903ABB623868FFF734FD0346FB8447
:101628003868FFF7B5FE0346BB843868FFF7D6FE77
:1016380003467B843868FFF763FD0246924B1344E8
:10164800FB613868FFF77BFD02468F4B1344BB6193
:101658003868FFF793FD02468B4B13447B6138686B
:10166800FFF7ABFD0246884B13443B613868FFF730
:10167800C3FDF0EE407A9FED837A67EE877A9FED9F
:10168800837A77EE877AFCEEE77A17EE903AFB607A
:101698003868FFF7D4FDF0EE407A9FED7A7A67EE6E
:1016A800877A9FED7A7A77EE877AFCEEE77A17EEFB
:1016B800903ABB603B6B1B0EDAB27B6B1A703B6BCC
:1016C8001B0CDAB27B6B5A703B6B1B0ADAB27B6B72
:1016D8009A703B6BDAB27B6BDA70FB6A1B0EDAB27C
:1016E8007B6B1A71FB6A1B0CDAB27B6B5A71FB6A53
:1016F8001B0ADAB27B6B9A71FB6ADAB27B6BDA711E
:10170800BB6A1B0EDAB27B6B1A72BB6A1B0CDAB2AD
:101718007B6B5A72BB6A1B0ADAB27B6B9A72BB6A22
:10172800DAB27B6BDA72FB8C1B0A9BB2DAB27B6B88
:101738001A73FB8CDAB27B6B5A73BB8C1B0A9BB295
:10174800DAB27B6B9A73BB8CDAB27B6BDA737B8C05
:101758001B0A9BB2DAB27B6B1A747B8CDAB27B6B96
:101768005A74FB691B0EDAB27B6B9A74FB691B0C0B
:10177800DAB27B6BDA74FB691B0ADAB27B6B1A7517
:10178800FB69DAB27B6B5A75BB691B0EDAB27B6BED
:101798009A75BB691B0CDAB27B6BDA75BB691B0ADD
:1017A800DAB27B6B1A76BB69DAB27B6B5A767B69E5
:1017B8001B0EDAB27B6B9A767B691B0CDAB27B6BF9
:1017C800DA767B691B0ADAB27B6B1A777B69DAB245
:1017D8007B6B5A773B691B0EDAB27B6B9A773B6956
:1017E8001B0CDAB27B6BDA773B691B0ADAB27B6BCC
:1017F80083F820203B69DAB27B6B83F82120FB68F1
:101808001B0EDAB27B6B83F82220FB681B0CDAB262
:101818007B6B83F82320FB681B0ADAB27B6B83F8A7
:101828002420FB68DAB27B6B83F82520BB681B0E8B
:10183800DAB27B6B83F82620BB681B0CDAB27B6BB1
:1018480083F82720BB681B0ADAB27B6B83F8282051
:10185800BB68DAB27B6B83F829207B6888338021E8
:10186800184601F03CFF7B68883397F83F20796B76
:10187800184601F04EFF7B688833184601F084FE55
:101888007B6805E000007A4400CA9A3B002474494A
:1018980003F1880C7E686D4606F10C040FCC0FC569
:1018A8000FCC0FC50FCC0FC594E8030085E80300E3
:1018B80096E80E00604601F0B5FE7B68883318464E
:1018C80001F0EFFE7B688833184601F0CCFED54660
:1018D80000BF4037BD46BDE8F08700BF2DE9F0479F
:1018E80094B00EAF786039606B469A460423FB7556
:1018F800F97D0B46013B3B61CBB2002298469146ED
:101908004FF000024FF000034FEAC90343EA58734F
:101918004FEAC802CBB200221C4615464FF000021F
:101928004FF00003EB0043EA5473E2000B46073321
:10193800DB08DB00ADEB030D0EAB0033FB60386852
:10194800FFF7A0FCF0EE407A9FED297A67EE877AE0
:10195800FCEEE77A17EE903ABB60BB681B0EDAB272
:10196800FB681A70BB681B0CDAB2FB685A70BB685C
:101978001B0ADAB2FB689A70BB68DAB2FB68DA70E5
:101988007B6888338121184601F0A9FE7B6888337B
:10199800FA7DF968184601F0BCFE7B688833184662
:1019A80001F0F2FD7B6803F1880C7E686D4606F154
:1019B8000C040FCC0FC50FCC0FC50FCC0FC594E886
:1019C800030085E8030096E80E00604601F02AFE51
:1019D8007B688833184601F064FE7B6888331846B4
:1019E80001F041FED54600BF1837BD46BDE8F08777
:1019F80000007A442DE9F04794B00EAF7860396062
:101A08006B469A460123FB75F97D0B46013B3B610A
:101A1800CBB20022984691464FF000024FF00003E7
:101A28004FEAC90343EA58734FEAC802CBB200220F
:101A38001C4615464FF000024FF00003EB0043EA46
:101A48005473E2000B460733DB08DB00ADEB030DF4
:101A58000EAB0033FB603868FFF779FC0346012BB7
:101A680003D1FB6801221A7002E0FB6800221A7099
:101A78007B6888338321184601F031FE7B68883300
:101A8800FA7DF968184601F044FE7B6888331846E9
:101A980001F07AFD7B6803F1880C7E686D4606F1DB
:101AA8000C040FCC0FC50FCC0FC50FCC0FC594E895
:101AB800030085E8030096E80E00604601F0B2FDD9
:101AC8007B688833184601F0ECFD7B68883318463C
:101AD80001F0C9FDD54600BF1837BD46BDE8F087FF
:101AE8002DE9F04794B00EAF786039606B469A469E
:101AF8003868FFF705FCF0EE407AFCEEE77A17EE5F
:101B0800903A7B610423FB74F97C0B46013BFB6034
:101B1800CBB20022984691464FF000024FF00003E6
:101B28004FEAC90343EA58734FEAC802CBB200220E
:101B38001C4615464FF000024FF00003EB0043EA45
:101B48005473E2000B460733DB08DB00ADEB030DF3
:101B58000EAB0033BB607B691B0EDAB2BB681A7030
:101B68007B691B0CDAB2BB685A707B691B0ADAB254
:101B7800BB689A707B69DAB2BB68DA707B688833B5
:101B88008221184601F0ABFD7B688833FA7CB9687E
:101B9800184601F0BEFD7B688833184601F0F4FC56
:101BA8007B6803F1880C7E686D4606F10C040FCC47
:101BB8000FC50FCC0FC50FCC0FC594E8030085E8FF
:101BC800030096E80E00604601F02CFD7B68883320
:101BD800184601F066FD7B688833184601F043FD1E
:101BE800D54600BF1837BD46BDE8F08780B584B03C
:101BF80000AFF860B9601346FB71FB79322B0BD844
:101C0800FB68FA7983F8AA21FB6803F5BC73FA79B3
:101C1800B968184605F07CFC00BF1037BD4680BD8A
:101C280080B582B000AF78607B6803F5BC73322260
:101C38000021184605F07AFC00BF0837BD4680BD74
:101C480080B582B000AF78600B46FB707B68FE33CE
:101C5800FA781146184601F0D7FA00BF0837BD4692
:101C680080BD80B582B000AF78607B68FE331846CF
:101C780001F0FDFA00BF0837BD4680BD80B584B0CD
:101C880000AF78607B68FE33184601F03EFC0346DF
:101C9800012B2AD17B68FE33184601F0F9FB034675
:101CA800FB737B68FE33184601F023FC0346BB73C5
:101CB800BB7B002B0BD07B68FE33184601F00DFC74
:101CC800B860BB7B1A46B9687868FFF78FFFFB7B63
:101CD8001946786800F0D4FA0121786800F0B3FA60
:101CE8007B68FE33184601F085FB00BF1037BD4600
:101CF80080BD80B582B000AF78603960786800F048
:101D080095FA0346012B07D13968786800F008F87E
:101D18000021786800F097FA00BF0837BD4680BDFB
:101D280080B594B000AF786039600023A7F84E30D2
:101D38000023A7F84C300023A7F84A3000237B641F
:101D480000233B640023FB630023BB6300237B6306
:101D58004FF000033B630023FB624FF00003BB62BC
:101D680000237B624FF000033B620023FB614FF0CE
:101D78000003BB6100237B614FF000033B6100233C
:101D8800FB604FF00003BB60786800F06CFA034614
:101D9800013B052B00F2CD8101A252F823F000BFD0
:101DA800C11D0008832000088D200008D5200008E8
:101DB80009210008312100087B6893F878311A0658
:101DC8007B6893F879311B041A447B6893F87A315D
:101DD8001B0213447A6892F87B211344FB62FB6A66
:101DE80007EE903AB8EE677ADFEDC26AC7EE267A58
:101DF800C7ED0A7A97ED0A0A3868FFF7EBF87B68AF
:101E080093F87C311A067B6893F87D311B041A44D9
:101E18007B6893F87E311B0213447A6892F87F211D
:101E280013447B627B6A07EE903AB8EE677ADFED7F
:101E3800B16AC7EE267AC7ED087A97ED080A3868BE
:101E4800FFF7EBF87B6893F880311A067B6893F804
:101E580081311B041A447B6893F882311B021344B6
:101E68007A6892F883211344FB61FB6907EE903A84
:101E7800B8EE677ADFED9F6AC7EE267AC7ED067A75
:101E880097ED060A3868FFF7EBF87B6893F884311A
:101E98009BB21B029AB27B6893F885319BB21344BC
:101EA800A7F84C30B7F84C3019463868FFF706F9F0
:101EB8007B6893F886319BB21B029AB27B6893F8D1
:101EC80087319BB21344A7F84E30B7F84E30194605
:101ED8003868FFF76CFA7B6893F888319BB21B026D
:101EE8009AB27B6893F889319BB21344A7F84A30B9
:101EF800B7F84A3019463868FFF77FFA7B6893F8D5
:101F08008A311A067B6893F88B311B041A447B6864
:101F180093F88C311B0213447A6892F88D2113448C
:101F28007B647A6C744B13447B64796C3868FFF774
:101F3800F6F87B6893F88E311A067B6893F88F3130
:101F48001B041A447B6893F890311B0213447A6887
:101F580092F8912113443B643A6C674B13443B64F9
:101F6800396C3868FFF7FAF87B6893F892311A06EB
:101F78007B6893F893311B041A447B6893F8943177
:101F88001B0213447A6892F895211344FB63FA6B99
:101F9800594B1344FB63F96B3868FFF7FEF87B680D
:101FA80093F896311A067B6893F897311B041A4404
:101FB8007B6893F898311B0213447A6892F8992148
:101FC8001344BB63BA6B4C4B1344BB63B96B38689F
:101FD800FFF702F97B6893F89A311A067B6893F841
:101FE8009B311B041A447B6893F89C311B021344F1
:101FF8007A6892F89D2113447B617B6907EE903AD9
:10200800F8EE677A9FED3D7A37EEC77ADFED396AE9
:10201800C7EE267AC7ED047A97ED040A3868FFF709
:10202800FCF87B6893F89E311A067B6893F89F3119
:102038001B041A447B6893F8A0311B0213447A6886
:1020480092F8A1211344FB60FB6807EE903AF8EE82
:10205800677A9FED2A7A37EEC77ADFED266AC7EEF0
:10206800267AC7ED027A97ED020A3868FFF7F8F882
:102078000121786800F090F860E00121786800F0AC
:102088008BF85BE07B6893F878311A067B6893F8E5
:1020980079311B041A447B6893F87A311B02134484
:1020A8007A6892F87B2113447B637B6B07EE903A46
:1020B800B8EE677ADFED0F6AC7EE267AC7ED0C7ABD
:1020C80097ED0C0A3868FFF7EFF837E07B6893F86C
:1020D8007831002B04D100213868FFF747F92AE04E
:1020E8007B6893F87831012B25D101213868FFF7F7
:1020F8003DF920E000007A44003665C400247449A4
:102108007B6893F87831002B04D10021786800F0BF
:1021180026F812E07B6893F87831012B0DD1012164
:10212800786800F01CF808E00121786800F051F8A0
:1021380004E000BF02E000BF00E000BF00BF50376E
:10214800BD4680BD80B483B000AF78607B6893F8EB
:10215800FA3018460C37BD465DF8047B704780B4EA
:1021680083B000AF78600B46FB707B68FA7883F821
:10217800FA2000BF0C37BD465DF8047B704780B479
:1021880083B000AF78607B6893F8FB3018460C3753
:10219800BD465DF8047B704780B483B000AF7860BB
:1021A8000B46FB707B68FA7883F8FB2000BF0C377E
:1021B800BD465DF8047B704780B483B000AF78609B
:1021C8007B6893F8FC3018460C37BD465DF8047BF5
:1021D800704780B483B000AF78600B46FB707B68B3
:1021E800FA7883F8FC2000BF0C37BD465DF8047B05
:1021F800704780B483B000AF78607B6893F8FD3097
:1022080018460C37BD465DF8047B704780B483B030
:1022180000AF78600B46FB707B68FA7883F8FD2086
:1022280000BF0C37BD465DF8047B704780B483B0AF
:1022380000AF78607B6893F8763118460C37BD4656
:102248005DF8047B704780B483B000AF78600B46BC
:10225800FB707B68FA7883F8762100BF0C37BD469F
:102268005DF8047B704780B483B000AF78607B680A
:1022780093F8773118460C37BD465DF8047B7047F4
:1022880080B483B000AF78600B46FB707B68FA7847
:1022980083F8772100BF0C37BD465DF8047B704793
:1022A80080B483B000AF78600B46FB707B68FA7827
:1022B80083F8AA2100BF0C37BD465DF8047B704740
:1022C80084B0B0B582B000AF786007F11C0080E838
:1022D8000E007B6803F14C0407F11C050FCD0FC4F9
:1022E8002B6823607B6802219FED142AF0EE001A08
:1022F8009FED131AF0EE000A9FED120A184604F03B
:10230800B1FD7B689FED0D0A184604F0B7FF322136
:10231800786800F0D3F90021786800F0A5F97B68A7
:1023280003F14C0000230022002102F012F800BF44
:102338000837BD46BDE8B04004B070470000000053
:102348000000C8420000484280B584B000AF786001
:102358007B68184604F0E0FD7B68184604F0C2FF6D
:10236800F0EE407AFCEEE77A17EE903AFB607B6875
:1023780003F14C00FB680022002101F0EAFF00BFD6
:102388001037BD4680BD80B582B000AF78607B68ED
:10239800184604F0ECFEF0EE407AB0EE670A083713
:1023A800BD4680BD80B582B000AF786087ED000A79
:1023B8007B6897ED000A184604F0E8FE00BF08376E
:1023C800BD4680BD80B582B000AF78607B68184696
:1023D80004F0EBFEF0EE407AB0EE670A0837BD462F
:1023E80080BD80B582B000AF786087ED000A7B6859
:1023F80097ED000A184604F0E7FE00BF0837BD460F
:1024080080BD80B582B000AF78607B68184604F064
:10241800EAFEF0EE407AB0EE670A0837BD4680BDA6
:1024280080B582B000AF786087ED000A7B6897EDD1
:10243800000A184604F0E6FE00BF0837BD4680BD16
:1024480080B582B000AF78607B68184604F0E9FE7A
:10245800F0EE407AB0EE670A0837BD4680BD80B519
:1024680082B000AF786087ED000A7B6897ED000ABC
:10247800184604F0E5FE00BF0837BD4680BD80B5AC
:1024880082B000AF78607B68184604F076FF034698
:1024980018460837BD4680BD80B582B000AF786069
:1024A80039607B683968184604F074FF00BF083744
:1024B800BD4680BD80B582B000AF78607B681846A5
:1024C80004F088FF034618460837BD4680BD80B52E
:1024D80082B000AF786039607B683968184604F0CC
:1024E80085FF00BF0837BD4680BD80B582B000AF0C
:1024F80078607B68184604F099FF03461846083749
:10250800BD4680BD80B582B000AF786039607B6819
:102518003968184604F096FF00BF0837BD4680BDED
:1025280080B582B000AF78607B68184604F0A5FFDC
:10253800034618460837BD4680BD80B582B000AF57
:10254800786039607B683968184604F0A2FF00BFDC
:102558000837BD4680BD80B582B000AF78607B6823
:10256800184604F0CEFEF0EE407AB0EE670A08375F
:10257800BD4680BD80B582B000AF786087ED000AA7
:102588007B6897ED000A184604F0CAFE00BF0837BA
:10259800BD4680BD80B582B000AF78607B681846C4
:1025A80004F0CDFEF0EE407AB0EE670A0837BD467B
:1025B80080BD80B582B000AF786087ED000A7B6887
:1025C80097ED000A184604F0C9FE00BF0837BD465B
:1025D80080BD80B582B000AF78607B68184604F093
:1025E8003EFEF0EE407AB0EE670A0837BD4680BD81
:1025F80080B582B000AF786087ED000A7B6897ED00
:10260800000A184604F03AFE00BF0837BD4680BDF0
:1026180080B582B000AF78607B68184604F03DFE54
:10262800F0EE407AB0EE670A0837BD4680BD80B547
:1026380082B000AF786087ED000A7B6897ED000AEA
:10264800184604F039FE00BF0837BD4680BD80B487
:1026580083B000AF78607B6893F84A3018460C372F
:10266800BD465DF8047B704780B582B000AF7860E6
:102678000B46FB70FB78002B0BD17B68184604F0E7
:1026880054FD7B6803F14C0000230022002101F077
:1026980060FE7B68FA7883F84A2000BF0837BD4699
:1026A80080BD80B483B000AF78607B68B3F84830F1
:1026B80018460C37BD465DF8047B704780B483B07C
:1026C80000AF78600B467B807B687A88A3F8482047
:1026D80000BF0C37BD465DF8047B704780B483B0FB
:1026E80000AF78607B68164A934223D1154B1B884C
:1026F80001339AB2134B1A80134B1B8801339AB2D9
:10270800114B1A80114B1B8801339AB20F4B1A8058
:102718000F4B1B8801339AB20D4B1A800D4B1B8847
:1027280001339AB20B4B1A800B4B1B8801339AB2B8
:10273800094B1A8000BF0C37BD465DF8047B704713
:102748008400002056010020580100205A01002072
:102758005C0100205E0100206001002080B582B08D
:1027680000AF78607B680A4A93420DD1012209497B
:10277800074803F054FB074B1B7819460648FEF739
:10278800D1FB044B00221A7000BF0837BD4680BD3C
:10279800CC0000205401002064010020F0B5ABB04B
:1027A80026AF00F0CFFF00F001F900F07BFA00F04F
:1027B8006FF900F0E9F900F021FA00F049FA00F0A9
:1027C800B9F96B4802F096FE00216A4801F06FFDE6
:1027D800694E6A4A15AB11464422184604F098FE21
:1027E800644B10AC1D460FCD0FC42B6823606D469B
:1027F800341D0FCC0FC50FCC0FC50FCC0FC594E8F7
:102808000F0085E80F00336820225D495D48FEF718
:1028180097FA01225C49584803F001FB5948FEF732
:10282800B7FD03461A46594B1B889A4223D8584885
:1028380001F03EF84FF0FF31554801F03EF9544899
:1028480001F0C6F90346FB81514801F003F9FB8901
:102858001846FEF7EDFAB860B9684A48FEF742FB39
:102868004848FEF750FB786079684648FEF759FDFE
:10287800464B00221A804348FEF704FC03461A46DA
:10288800444B1B889A420BD83E48FEF760FD03462E
:10289800012B02D13B48FEF7BDFA3E4B00221A80BD
:1028A8003D4B1B78052B5ED801A252F823F000BFE0
:1028B800D1280008ED280008FB280008092900088D
:1028C8002F2900084D290008344B1B88632B05D994
:1028D8002C48FEF738FB314B00221A802E4B012280
:1028E8001A7044E02748FEF73BFB2B4B02221A7074
:1028F8003DE02448FEF741FB274B03221A7036E0DF
:10290800274B1B881C461F48FEF778FA03469C4253
:1029180005D31C48FEF762FA214B00221A801E4B91
:1029280004221A7023E01F4B1B88B3F57A7F05D366
:102938001448FEF730FB1B4B00221A80164B052269
:102948001A7014E0184B1B8844F61F62934206D98C
:1029580001210C48FEF763FD134B00221A800E4B31
:1029680000221A7003E00C4B00221A7000BF55E7D2
:102978008400002070000020CC00002010010020FE
:102988000000024064010020540100205C01002086
:10299800280000205E010020380800205601002091
:1029A800580100205A0100206001002080B594B031
:1029B80000AF07F11C0334220021184604F0B6FDCD
:1029C80007F1080300221A605A609A60DA601A61F7
:1029D80000237B602C4B1B6C2B4A43F08053136401
:1029E800294B1B6C03F080537B607B6800233B60A2
:1029F800264B1B68254A43F440431360234B1B684E
:102A080003F440433B603B680223FB610123BB6244
:102A18001023FB6202237B630023BB630823FB6351
:102A2800B4233B6402237B640223BB640223FB645C
:102A380007F11C03184602F06FFA0346002B01D079
:102A480000F082F901F054FF0346002B01D000F09A
:102A58007BF90F23BB600223FB6000233B614FF42B
:102A6800A0537B614FF48053BB6107F10803052134
:102A7800184601F08DFF0346002B01D000F064F9E1
:102A880000BF5037BD4680BD00380240007000408E
:102A980080B584B000AF3B4600221A605A609A6045
:102AA800DA60214B214A1A601F4B4FF480325A607A
:102AB8001D4B00229A601C4B00221A611A4B0022FF
:102AC8001A76194B002283F82020174B0022DA626D
:102AD800154B174A9A62144B0022DA60124B0122F6
:102AE800DA61114B002283F830200F4B01225A6122
:102AF8000D4800F099FE0346002B01D000F024F9A0
:102B080001233B6001237B600023BB603B461946E1
:102B1800054801F06BF80346002B01D000F014F9CA
:102B280000BF1037BD4680BD2800002000200140AE
:102B38000100000F80B582B000AF3B4600221A604A
:102B48005A600F4B0F4A1A600D4801F08EFB03467E
:102B5800002B01D000F0F8F800233B6002237B60D3
:102B68003B4600221946064801F018FC0346002B94
:102B780001D000F0E9F800BF0837BD4680BD00BFAE
:102B8800700000200074004080B584B000AF3B4660
:102B980000221A605A609A60DA60164B164A1A6068
:102BA800144B04225A60134B00229A60114B40F6D2
:102BB8005162DA600F4B00221A610E4B00229A61B3
:102BC8000C4802F047FC0346002B01D000F0BCF88B
:102BD8004FF480533B603B461946064802F002FE1C
:102BE8000346002B01D000F0AFF800BF1037BD46F8
:102BF80080BD00BF840000200040014080B500AFC8
:102C0800114B124A1A60104B4FF4E1325A600E4BC6
:102C180000229A600C4B0022DA600B4B00221A61EA
:102C2800094B0C225A61084B00229A61064B00227C
:102C3800DA61054803F014F80346002B01D000F0D0
:102C480083F800BF80BD00BFCC00002000440040D6
:102C580080B500AF114B124A1A60104B4FF4E132A5
:102C68005A600E4B00229A600C4B0022DA600B4B24
:102C780000221A61094B0C225A61084B00229A6102
:102C8800064B0022DA61054802F0EAFF0346002BF2
:102C980001D000F059F800BF80BD00BF100100202E
:102CA8000048004080B588B000AF07F10C0300224F
:102CB8001A605A609A60DA601A610023BB601F4B81
:102CC8001B6B1E4A43F0040313631C4B1B6B03F07E
:102CD8000403BB60BB6800237B60184B1B6B174A5F
:102CE80043F001031363154B1B6B03F001037B6077
:102CF8007B6800222021124801F0C6FD4FF40053E2
:102D0800FB6000233B6100237B6107F10C0319463C
:102D18000C4801F025FC2023FB6001233B610023C4
:102D28007B610023BB6107F10C031946044801F0DD
:102D380017FC00BF2037BD4680BD00BF00380240E9
:102D4800000002400008024080B400AF72B600BF25
:102D5800FEE7000080B483B000AF00237B60104B17
:102D68005B6C0F4A43F4804353640D4B5B6C03F474
:102D780080437B607B6800233B60094B1B6C084ADF
:102D880043F080531364064B1B6C03F080533B6085
:102D98003B6800BF0C37BD465DF8047B704700BF39
:102DA8000038024080B58AB000AF786007F114039C
:102DB80000221A605A609A60DA601A617B681B68A0
:102DC800174A934227D100233B61164B5B6C154A87
:102DD80043F480735364134B5B6C03F480733B615F
:102DE8003B690023FB600F4B1B6B0E4A43F001034A
:102DF80013630C4B1B6B03F00103FB60FB6802239E
:102E08007B610323BB610023FB6107F114031946AF
:102E1800054801F0A5FB00BF2837BD4680BD00BFAF
:102E280000200140003802400000024080B58AB00E
:102E380000AF786007F1140300221A605A609A60A4
:102E4800DA601A617B681B68174A934227D100230E
:102E58003B61164B1B6C154A43F000531364134B2C
:102E68001B6C03F000533B613B690023FB600F4B75
:102E78001B6B0E4A43F0010313630C4B1B6B03F0EF
:102E88000103FB60FB6810237B610323BB61002304
:102E9800FB6107F114031946054801F061FB00BF07
:102EA8002837BD4680BD00BF00740040003802408E
:102EB8000000024080B584B000AF78607B681B6872
:102EC8000E4A934215D10023FB600D4B5B6C0C4AF4
:102ED80043F4803353640A4B5B6C03F48033FB6028
:102EE800FB6800220021182001F089F9182001F060
:102EF800A2F900BF1037BD4680BD00BF00400140A9
:102F08000038024080B58CB000AF786007F11C0330
:102F180000221A605A609A60DA601A617B681B683E
:102F2800364A934234D10023BB61354B1B6C344A7B
:102F380043F400331364324B1B6C03F40033BB615E
:102F4800BB6900237B612E4B1B6B2D4A43F00103A9
:102F580013632B4B1B6B03F001037B617B690C2311
:102F6800FB6102233B6200237B620323BB620723CE
:102F7800FB6207F11C031946224801F0F1FA00220E
:102F88000021262001F03BF9262001F054F931E018
:102F98007B681B681C4A93422CD100233B61184B69
:102FA8001B6C174A43F480231364154B1B6C03F402
:102FB80080233B613B690023FB60114B1B6B104A6C
:102FC80043F0040313630E4B1B6B03F00403FB6015
:102FD800FB684FF44063FB6102233B6200237B6282
:102FE8000323BB620723FB6207F11C03194607484A
:102FF80001F0B6FA00BF3037BD4680BD004400403E
:10300800003802400000024000480040000802402A
:1030180080B400AFFEE780B400AFFEE780B400AF35
:10302800FEE780B400AFFEE780B400AFFEE780B4EF
:1030380000AF00BFBD465DF8047B704780B400AFA9
:1030480000BFBD465DF8047B704780B400AF00BF89
:10305800BD465DF8047B704780B500AF00F0C4FB47
:1030680000BF80BD80B500AF024802F0B3FA00BFD0
:1030780080BD00BF8400002080B500AF024802F088
:10308800FFFE00BF80BD00BFCC00002080B400AFB1
:10309800064BD3F88830054A43F47003C2F88830E9
:1030A80000BFBD465DF8047B704700BF00ED00E03F
:1030B800DFF834D00D480E490E4A002302E0D458F8
:1030C800C4500433C4188C42F9D30B4A0B4C002368
:1030D80001E013600432A242FBD3FFF7D7FF04F0EC
:1030E800F3F9FFF75BFB70470000022000000020A7
:1030F8000C000020847600080C0000204008002006
:10310800FEE780B584B000AF78600B467B80002373
:10311800FB730023BB730023BB730DE0BB7B7A6892
:1031280013441A78FB7B1146184600F00FF8034643
:10313800FB73BB7B0133BB73BB7B9BB27A889A4220
:10314800ECD8FB7B18461037BD4680BD80B485B0EF
:1031580000AF03460A46FB711346BB710023FB739D
:10316800FA79BB795340FB73FB791B125AB2FB7B8C
:103178000549CB5C5BB253405BB2DBB218461437EF
:10318800BD465DF8047B70477475000880B582B051
:1031980000AF78600B46FB701346BB707B68FA780B
:1031A8001A707B68BA785A707B6800229A707B68BC
:1031B8000022DA707B68043332220021184604F0BA
:1031C800B5F97B68002283F836207B6837333722CD
:1031D8000021184604F0AAF97B680022A3F86E20A3
:1031E8007B680022A3F870207B68002283F8762091
:1031F8007B68002283F872207B680022A3F8742081
:1032080000BF0837BD4680BD80B582B000AF78608A
:103218000B46FB707B68B3F870301A467B68134422
:10322800FA7883F837207B68B3F8703001339AB2A4
:103238007B68A3F870207B68B3F86E3001339AB2CC
:103248007B68A3F86E207B68B3F87030372B0AD9F7
:10325800786800F0CFF87B680022A3F870207B68BC
:103268000022A3F86E2000BF0837BD4680BD80B598
:1032780084B000AF78607B6893F87230012B7ED100
:103288007B68B3F8743002337A68134493F83730A4
:103298001946786800F0E2F87B68B3F874300333B5
:1032A8007A68134493F837207B68DA707B68DB7898
:1032B800002B26D17B68B3F8743004337A68134442
:1032C80093F837303B737B6837337A68B2F87420E9
:1032D800134404211846FFF714FF03461A467B6877
:1032E80083F836207B6893F836303A7B9A427DD152
:1032F8007B680022A3F870207B68012283F876207F
:1033080074E07B68B3F874301A467B68DB78134442
:1033180004337A68134493F837307B737B68373308
:103328007A68B2F874201A447B68DB789BB204335D
:103338009BB219461046FFF7E4FE03461A467B681F
:1033480083F836207B6893F836307A7B9A424DD1E1
:103358007B6803F137027B68B3F874300433D11803
:103368007B68DB781A46786800F09EF87B68002254
:10337800A3F870207B68012283F8762036E07B680A
:10338800B3F86E30042B31D90023FB810023FB8175
:103398001EE0FB897A68134493F837207B681B7812
:1033A8009A4212D1FB8901337A68134493F8372083
:1033B8007B685B789A4208D17B68012283F8722087
:1033C8007B68FA89A3F8742008E0FB890133FB8144
:1033D8007B68B3F86E30FA899A42DAD37B6893F83F
:1033E8007230002B02D1786800F004F800BF103763
:1033F800BD4680BD80B582B000AF78607B68002292
:1034080083F876207B68002283F872207B6800228C
:10341800A3F870207B680022A3F86E207B68002246
:10342800DA707B6800229A707B68002283F8362065
:103438007B680022A3F874207B68043332220021C1
:10344800184604F073F87B68373337220021184692
:1034580004F06CF800BF0837BD4680BD80B483B067
:1034680000AF78600B46FB707B68002283F87620FB
:10347800FB78002B06D0FB78FF2B03D07B68FA780B
:103488009A7000E000BF0C37BD465DF8047B7047BA
:1034980080B483B000AF78607B689B7818460C379F
:1034A800BD465DF8047B704780B584B000AFF86016
:1034B800B9601346FB71FB68002283F87620FB682D
:1034C8000433FA79B968184604F022F8FB68FA79E7
:1034D800DA7000BF1037BD4680BD80B483B000AF3E
:1034E80078607B68043318460C37BD465DF8047B6A
:1034F800704780B483B000AF78607B68DB7818468B
:103508000C37BD465DF8047B704780B483B000AFCC
:1035180078607B6893F8763018460C37BD465DF8BE
:10352800047B704780B582B000AF78600B46FB70B3
:103538001346BB707B68FA781A707B68BA785A7041
:103548007B6800229A707B680022DA707B680433FB
:1035580032220021184603F0E9FF7B68002283F835
:1035680036207B68373337220021184603F0DEFF08
:103578007B680022A3F86E207B68002283F8702005
:1035880000BF0837BD4680BD80B582B000AF786007
:103598007B681A787B6883F837207B685A787B6861
:1035A80083F838207B689A787B6883F839207B68B1
:1035B800DA787B6883F83A207B683733181D7B6894
:1035C800191D7B68DB781A4603F0A2FF7B68DB785D
:1035D8009BB205339AB27B68A3F86E207B6803F12F
:1035E80037027B68B3F86E30013B9BB21946104630
:1035F800FFF787FD03461A467B6883F836207B6809
:10360800DB7804337A6892F836107A6813440A46ED
:1036180083F837207B68012283F8702000BF0837C1
:10362800BD4680BD84B080B582B000AF786007F138
:10363800140080E80E007B6893F87030012B0BD1E2
:103648007B6803F137017B68B3F86E2007F114003B
:103658004FF0FF3302F051FB00BF0837BD46BDE80D
:10366800804004B0704780B582B000AF78607B6856
:10367800002283F870207B680022A3F86E207B6804
:10368800002283F836207B6800229A707B683733E3
:1036980037220021184603F049FF00BF0837BD460E
:1036A80080BD80B582B000AF78607B68002283F867
:1036B80070207B680022A3F86E207B68002283F8C4
:1036C80036207B6800229A707B68043332220021FE
:1036D800184603F02BFF00BF0837BD4680BD80B4F5
:1036E80083B000AF78600B46FB707B68002283F8DC
:1036F8007020FB78002B06D0FB78FF2B03D07B686B
:10370800FA789A7000E000BF0C37BD465DF8047B7C
:10371800704780B584B000AFF860B9601346FB719C
:10372800FB68002283F87020FB680433FA79B968D3
:10373800184603F0EDFEFB68FA79DA7000BF10371F
:10374800BD4680BD80B500AF0E4B1B680D4A43F4E3
:10375800007313600B4B1B680A4A43F480631360C1
:10376800084B1B68074A43F480731360032000F07A
:103778003BFD0F2000F008F8FFF7ECFA002318468D
:1037880080BD00BF003C024080B582B000AF7860C9
:10379800124B1A68124B1B7819464FF47A73B3FB15
:1037A800F1F3B2FBF3F3184600F053FD0346002B88
:1037B80001D001230EE07B680F2B0AD8002279681C
:1037C8004FF0FF3000F01BFD064A7B6813600023B2
:1037D80000E0012318460837BD4680BD00000020E0
:1037E800080000200400002080B400AF064B1B78BE
:1037F8001A46064B1B681344044A136000BFBD46B3
:103808005DF8047B704700BF080000203C080020DA
:1038180080B400AF034B1B681846BD465DF8047BB7
:10382800704700BF3C08002080B584B000AF7860C6
:103838000023FB737B68002B01D1012333E07B68F5
:103848001B6C002B09D17868FFF7ACFA7B68002263
:103858005A647B68002283F83C207B681B6C03F069
:103868001003002B18D17B681B6C23F4885323F0BA
:10387800020343F002027B681A64786800F0E8FAF1
:103888007B6800225A647B681B6C23F0030343F0B7
:1038980001027B681A6401E00123FB737B68002244
:1038A80083F83C20FB7B18461037BD4680BD0000DE
:1038B80080B485B000AF78600023BB607B6893F864
:1038C8003C30012B01D10223B2E07B68012283F84E
:1038D8003C207B681B689B6803F00103012B18D010
:1038E8007B681B689A687B681B6842F001029A60D3
:1038F800524B1B68524AA2FB03239A0C13465B00E7
:103908001344BB6002E0BB68013BBB60BB68002B93
:10391800F9D17B681B689B6803F00103012B7AD1FE
:103928007B681B6C23F4E06323F0010343F480728B
:103938007B681A647B681B685B6803F48063002BF0
:1039480007D07B681B6C23F4405343F480527B6898
:103958001A647B681B6C03F48053B3F5805F06D14F
:103968007B685B6C23F006027B685A6402E07B6824
:1039780000225A647B68002283F83C20314BFB60AC
:103988007B681B686FF022021A60FB685B6803F0B3
:103998001F03002B2AD17B681B682B4A934215D042
:1039A8007B681B68294A934205D1264B5B6803F064
:1039B8001F03002B0AD07B681B68254A934236D127
:1039C800204B5B6803F01003002B30D17B681B6829
:1039D8009B6803F04053002B29D17B681B689A68C9
:1039E8007B681B6842F080429A6020E07B681B6815
:1039F800154A93421BD17B681B689B6803F04053B0
:103A0800002B14D17B681B689A687B681B6842F09E
:103A180080429A600BE07B681B6C43F010027B6865
:103A28001A647B685B6C43F001027B685A6400236C
:103A380018461437BD465DF8047B70470000002027
:103A480083DE1B4300230140002001400021014088
:103A58000022014080B483B000AF78607B6893F89F
:103A68003C30012B01D1022321E07B68012283F83D
:103A78003C207B681B689A687B681B6822F00102FF
:103A88009A607B681B689B6803F00103002B09D1CF
:103A98007B681B6C23F4885323F0010343F0010275
:103AA8007B681A647B68002283F83C200023184650
:103AB8000C37BD465DF8047B704780B584B000AF15
:103AC800786039600023FB607B681B689B6803F49F
:103AD8008063B3F5806F13D17B681B689B6803F420
:103AE8008073B3F5807F0BD17B681B6C43F0200299
:103AF8007B681A647B68002283F83C20012363E01A
:103B0800FFF786FEF86021E03B68B3F1FF3F1DD068
:103B18003B68002B07D0FFF77BFE0246FB68D31AF1
:103B28003A689A4212D27B681B681B6803F002034A
:103B3800022B0BD07B681B6C43F004027B681A6471
:103B48007B68002283F83C2003233DE07B681B68E8
:103B58001B6803F00203022BD6D17B681B686FF049
:103B680012021A607B681B6C43F400727B681A644B
:103B78007B681B689B6803F04053002B23D17B684C
:103B88001B7E002B1FD17B681B68DB6A03F4700364
:103B9800002B06D07B681B689B6803F48063002BAE
:103BA80011D17B681B6C23F480727B681A647B6874
:103BB8001B6C03F48053002B05D17B681B6C43F00E
:103BC80001027B681A64002318461037BD4680BD81
:103BD80080B483B000AF78607B681B68DB6C1846E4
:103BE8000C37BD465DF8047B7047000080B485B093
:103BF80000AF786039600023BB607B6893F83C3085
:103C0800012B01D1022313E17B68012283F83C20B8
:103C18003B681B68092B25D97B681B68D9683B68FA
:103C28001B689BB21A4613465B0013441E3B0722CF
:103C380002FA03F3DA437B681B680A40DA607B68A0
:103C48001B68D9683B689A683B681B689BB2184632
:103C580003465B0003441E3B9A407B681B680A438B
:103C6800DA6022E07B681B6819693B681B689BB2B5
:103C78001A4613465B001344072202FA03F3DA4399
:103C88007B681B680A401A617B681B6819693B6876
:103C98009A683B681B689BB2184603465B0003445E
:103CA8009A407B681B680A431A613B685B68062B6D
:103CB80024D87B681B68596B3B685A6813469B007D
:103CC8001344053B1F2202FA03F3DA437B681B689F
:103CD8000A405A637B681B68596B3B681B689BB238
:103CE80018463B685A6813469B001344053B00FA84
:103CF80003F27B681B680A435A634CE03B685B68C5
:103D08000C2B24D87B681B68196B3B685A681346D0
:103D18009B001344233B1F2202FA03F3DA437B6818
:103D28001B680A401A637B681B68196B3B681B6831
:103D38009BB218463B685A6813469B001344233BC2
:103D480000FA03F27B681B680A431A6323E07B6866
:103D58001B68D96A3B685A6813469B001344413B69
:103D68001F2202FA03F3DA437B681B680A40DA620F
:103D78007B681B68D96A3B681B689BB218463B681E
:103D88005A6813469B001344413B00FA03F27B68D0
:103D98001B680A43DA62294BFB607B681B68284A68
:103DA80093420FD13B681B68122B0BD1FB685B68F1
:103DB80023F40002FB685A60FB685B6843F48002E6
:103DC800FB685A607B681B681D4A93422BD13B688D
:103DD8001B681C4A934203D03B681B68112B22D1F5
:103DE800FB685B6823F48002FB685A60FB685B68C9
:103DF80043F40002FB685A603B681B68114A93420F
:103E080011D1114B1B68114AA2FB03239A0C1346CC
:103E18009B0013445B00BB6002E0BB68013BBB60D6
:103E2800BB68002BF9D17B68002283F83C20002373
:103E380018461437BD465DF8047B704700230140DF
:103E480000200140120000100000002083DE1B4308
:103E580080B485B000AF7860794BFB60FB685B6825
:103E680023F44032FB685A60FB685A687B685B68D9
:103E78001A43FB685A607B681B685A687B681B6832
:103E880022F480725A607B681B6859687B681B69DA
:103E98001A027B681B680A435A607B681B685A6869
:103EA8007B681B6822F040725A607B681B685968FF
:103EB8007B689A687B681B680A435A607B681B6842
:103EC8009A687B681B6822F400629A607B681B68AA
:103ED80099687B68DA687B681B680A439A607B6824
:103EE8009B6A584A934222D07B681B689A687B6811
:103EF8001B6822F070629A607B681B6899687B680F
:103F08009A6A7B681B680A439A607B681B689A6890
:103F18007B681B6822F040529A607B681B6899682E
:103F28007B68DA6A7B681B680A439A600FE07B68E3
:103F38001B689A687B681B6822F070629A607B68CD
:103F48001B689A687B681B6822F040529A607B68FD
:103F58001B689A687B681B6822F002029A607B687B
:103F68001B6899687B681B7E5A007B681B680A433C
:103F78009A607B6893F82030002B1BD07B681B6805
:103F88005A687B681B6842F400625A607B681B6849
:103F98005A687B681B6822F460425A607B681B6819
:103FA80059687B685B6A013B5A037B681B680A4354
:103FB8005A6007E07B681B685A687B681B6822F4B4
:103FC80000625A607B681B68DA6A7B681B6822F4A7
:103FD8007002DA627B681B68D96A7B68DB69013B1F
:103FE8001A057B681B680A43DA627B681B689A6853
:103FF8007B681B6822F400729A607B681B6899686A
:104008007B6893F830305A027B681B680A439A60D1
:104018007B681B689A687B681B6822F480629A60D8
:104028007B681B6899687B685B699A027B681B6878
:104038000A439A6000BF1437BD465DF8047B704799
:10404800002301400100000F80B485B000AF786004
:104058007B6803F00703FB600C4BDB68BB60BA6846
:104068004FF6FF031340BB60FB681A02BB6813439B
:1040780043F0BF6343F40033BB60044ABB68D360BA
:1040880000BF1437BD465DF8047B704700ED00E0C3
:1040980080B400AF044BDB681B0A03F00703184623
:1040A800BD465DF8047B704700ED00E080B483B046
:1040B80000AF0346FB7197F90730002B0BDBFB7948
:1040C80003F01F02074997F907305B09012000FA3E
:1040D80002F241F8232000BF0C37BD465DF8047B8F
:1040E800704700BF00E100E080B483B000AF034632
:1040F8003960FB7197F90730002B0ADB3B68DAB2AD
:104108000C4997F907301201D2B20B4483F8002307
:104118000AE03B68DAB20849FB7903F00F03043B75
:104128001201D2B20B441A7600BF0C37BD465DF8B7
:10413800047B704700E100E000ED00E080B489B046
:1041480000AFF860B9607A60FB6803F00703FB61B1
:10415800FB69C3F10703042B28BF0423BB61FB6978
:104168000433062B02D9FB69033B00E000237B6183
:104178004FF0FF32BB6902FA03F3DA43BB681A4017
:104188007B699A404FF0FF317B6901FA03F3D94309
:104198007B680B40134318462437BD465DF8047B03
:1041A8007047000080B582B000AF78607B68013B43
:1041B800B3F1807F01D301230FE00A4A7B68013BFA
:1041C80053600F214FF0FF30FFF78EFF054B0022A1
:1041D8009A60044B07221A60002318460837BD4628
:1041E80080BD00BF10E000E080B582B000AF78600D
:1041F8007868FFF729FF00BF0837BD4680BD80B546
:1042080086B000AF0346B9607A60FB7300237B6118
:10421800FFF73EFF78617A68B9687869FFF78EFF23
:10422800024697F90F3011461846FFF75DFF00BFA9
:104238001837BD4680BD80B582B000AF0346FB711C
:1042480097F907301846FFF731FF00BF0837BD461A
:1042580080BD80B582B000AF78607868FFF7A2FFB4
:10426800034618460837BD4680BD80B582B000AF0A
:1042780078607B68002B01D1012314E07B681B79EF
:10428800DBB2002B05D17B6800225A717868FEF7F3
:10429800CDFD7B6802221A717B6800221A617B6857
:1042A80001221A71002318460837BD4680BD80B424
:1042B80083B000AF786039607B685B79012B01D1EE
:1042C800022340E07B6801225A717B6802221A713E
:1042D8007B681B6819683B6803F0100301229A4049
:1042E8007B681B680A431A603B68002B0FD17B6808
:1042F8001B681B6803F03C033C2B1DD17B681B68C3
:104308005A687B681B6842F001025A6014E07B68B7
:104318001B681B6803F470123B6803F010033C2110
:1043280001FA03F39A4207D17B681B685A687B68D5
:104338001B6842F002025A607B6801221A717B688E
:1043480000225A71002318460C37BD465DF8047BDD
:10435800704780B487B000AFF860B9607A603B609E
:1043680000237B61FB681B687B61BB68002B05D160
:104378007A697B68134408337B6104E07A697B6857
:10438800134414337B617B691A463B68136000232E
:1043980018461C37BD465DF8047B704780B487B06B
:1043A80000AFF860B9607A60FB685B79012B01D1D6
:1043B80002233CE0FB6801225A71FB6802221A7151
:1043C800FB681B681B687B617B6803F0100340F681
:1043D800FE7202FA03F3DB437A6913407B61BB6820
:1043E8001A68BB685B6813433B617B6803F0100382
:1043F8003A6902FA03F37A6913437B61FB681B6825
:104408007A691A60FB681B6819687B6803F01003F7
:10441800C02202FA03F3DA43FB681B680A401A60F9
:10442800FB6801221A71FB6800225A7100231846A2
:104438001C37BD465DF8047B704780B584B000AF7B
:1044480078607B689B6DFB60FFF7E2F9B8607B687A
:1044580093F83530DBB2022B08D07B6880225A658E
:104468007B68002283F83420012352E07B681B68B4
:104478001A687B681B6822F016021A607B681B6842
:104488005A697B681B6822F080025A617B681B6C42
:10449800002B03D17B689B6C002B07D07B681B68C3
:1044A8001A687B681B6822F008021A607B681B6820
:1044B8001A687B681B6822F001021A6013E0FFF794
:1044C800A7F90246BB68D31A052B0CD97B682022B2
:1044D8005A657B68032283F835207B68002283F8BD
:1044E8003420032315E07B681B681B6803F0010375
:1044F800002BE4D17B68DB6D3F229A40FB689A6011
:104508007B68012283F835207B68002283F83420F9
:10451800002318461037BD4680BD80B483B000AF75
:1045280078607B6893F83530DBB2022B04D07B6867
:1045380080225A6501230CE07B68052283F8352028
:104548007B681B681A687B681B6822F001021A6086
:10455800002318460C37BD465DF8047B7047000001
:1045680080B489B000AF7860396000237B61002394
:104578003B610023BB610023FB6165E10122FB690C
:1045880002FA03F37B613B681B687A6913403B615D
:104598003A697B699A4240F054813B685B6803F052
:1045A8000303012B05D03B685B6803F00303022B70
:1045B80030D17B689B68BB61FB695B00032202FA10
:1045C80003F3DB43BA691340BB613B68DA68FB69F4
:1045D8005B0002FA03F3BA691343BB617B68BA69EB
:1045E8009A607B685B68BB610122FB6902FA03F38E
:1045F800DB43BA691340BB613B685B681B0903F086
:104608000102FB6902FA03F3BA691343BB617B68D1
:10461800BA695A603B685B6803F00303032B17D041
:104628007B68DB68BB61FB695B00032202FA03F36A
:10463800DB43BA691340BB613B689A68FB695B005E
:1046480002FA03F3BA691343BB617B68BA69DA609B
:104658003B685B6803F00303022B23D1FB69DA088C
:104668007B68083253F82230BB61FB6903F007030B
:104678009B000F2202FA03F3DB43BA691340BB61C4
:104688003B681A69FB6903F007039B0002FA03F30E
:10469800BA691343BB61FB69DA087B680832B969F8
:1046A80043F822107B681B68BB61FB695B0003222F
:1046B80002FA03F3DB43BA691340BB613B685B68EA
:1046C80003F00302FB695B0002FA03F3BA691343C0
:1046D800BB617B68BA691A603B685B6803F4403366
:1046E800002B00F0AE800023FB605D4B5B6C5C4AE6
:1046F80043F4804353645A4B5B6C03F48043FB6080
:10470800FB68584AFB699B08023352F82330BB61A7
:10471800FB6903F003039B000F2202FA03F3DB4358
:10472800BA691340BB617B684F4A934225D07B68C6
:104738004E4A93421FD07B684D4A934219D07B68FA
:104748004C4A934213D07B684B4A93420DD07B6806
:104758004A4A934207D07B68494A934201D10623CB
:104768000CE007230AE0052308E0042306E00323FE
:1047780004E0022302E0012300E00023FA6902F0CA
:10478800030292009340BA691343BB613549FB6940
:104798009B080233BA6941F823203A4B9B68BB61F6
:1047A8003B69DB43BA691340BB613B685B6803F450
:1047B8008013002B03D0BA693B691343BB61314AAC
:1047C800BB6993602F4BDB68BB613B69DB43BA690C
:1047D8001340BB613B685B6803F40013002B03D0F4
:1047E800BA693B691343BB61264ABB69D360254B51
:1047F8005B68BB613B69DB43BA691340BB613B68DB
:104808005B6803F40033002B03D0BA693B69134398
:10481800BB611C4ABB6953601A4B1B68BB613B698F
:10482800DB43BA691340BB613B685B6803F48033C0
:10483800002B03D0BA693B691343BB61114ABB69BA
:104848001360FB690133FB61FB690F2B7FF696AEA2
:1048580000BF00BF2437BD465DF8047B704700BF2A
:1048680000380240003801400000024000040240C5
:1048780000080240000C02400010024000140240F0
:1048880000180240003C014080B483B000AF78605B
:104898000B467B8013467B707B78002B03D07A888D
:1048A8007B689A6103E07B881A047B689A6100BF81
:1048B8000C37BD465DF8047B704780B485B000AF07
:1048C80078600B467B807B685B69FB607A88FB6855
:1048D80013401A04FB68D9437B880B401A437B6852
:1048E8009A6100BF1437BD465DF8047B704700002D
:1048F80080B582B000AF00237B6000233B60204B73
:104908001B6C1F4A43F0805313641D4B1B6C03F050
:1049180080533B603B681B4B01221A60FEF778FF0F
:10492800786009E0FEF774FF02467B68D31AB3F596
:104938007A7F01D903231FE0134B5B6803F48033AC
:10494800B3F5803FEED1114B01221A60FEF760FFEC
:10495800786009E0FEF75CFF02467B68D31AB3F57E
:104968007A7F01D9032307E0074B5B6803F4003320
:10497800B3F5003FEED1002318460837BD4680BD89
:104988000038024040000E420070004044000E42D1
:1049980080B584B000AF786039607B68002B01D1A6
:1049A8000123CCE0684B1B6803F00F033A689A4276
:1049B8000CD9654B3A68D2B21A70634B1B6803F086
:1049C8000F033A689A4201D00123B8E07B681B685C
:1049D80003F00203002B20D07B681B6803F004035C
:1049E800002B05D0594B9B68584A43F4E053936019
:1049F8007B681B6803F00803002B05D0534B9B68AA
:104A0800524A43F460439360504B9B6823F0F00292
:104A18007B689B684D4913438B607B681B6803F078
:104A28000103002B44D07B685B68012B07D1474BFF
:104A38001B6803F40033002B19D101237FE07B6846
:104A48005B68022B03D07B685B68032B07D13F4B65
:104A58001B6803F00073002B09D101236FE03B4B67
:104A68001B6803F00203002B01D1012367E0374BD9
:104A78009B6823F003027B685B68344913438B60AF
:104A8800FEF7C6FEF8600AE0FEF7C2FE0246FB68C3
:104A9800D31A41F28832934201D903234FE02B4BBA
:104AA8009B6803F00C027B685B689B009A42EBD121
:104AB800254B1B6803F00F033A689A420CD2224B2D
:104AC8003A68D2B21A70204B1B6803F00F033A6899
:104AD8009A4201D0012332E07B681B6803F004038B
:104AE800002B08D0194B9B6823F4E0527B68DB68E5
:104AF800164913438B607B681B6803F00803002B7F
:104B080009D0124B9B6823F460427B681B69DB0069
:104B18000E4913438B6000F055F802460B4B9B6817
:104B28001B0903F00F030A49CB5C22FA03F3094A75
:104B38001360094B1B681846FEF726FE002318462B
:104B48001037BD4680BD00BF003C0240003802401F
:104B58005C750008000000200400002080B400AF4D
:104B6800034B1B681846BD465DF8047B704700BFC1
:104B78000000002080B500AFFFF7F0FF0246054BAC
:104B88009B689B0A03F007030349CB5C22FA03F3F3
:104B9800184680BD003802406C75000880B500AF2B
:104BA800FFF7DCFF0246054B9B685B0B03F007032E
:104BB8000349CB5C22FA03F3184680BD0038024053
:104BC8006C7500082DE9B04FA6B000AF0023C7F8F8
:104BD8008C300023C7F894300023C7F888300023AE
:104BE800C7F884300023C7F89030C84B9B6803F09F
:104BF8000C030C2B00F27E8101A252F823F000BFB7
:104C08003D4C0008FD4E0008FD4E0008FD4E000812
:104C1800454C0008FD4E0008FD4E0008FD4E0008FA
:104C28004D4C0008FD4E0008FD4E0008FD4E0008E2
:104C3800B74D0008B64BC7F890305FE1B54BC7F8E1
:104C480090305BE1B14B5B6803F03F03C7F88C30F1
:104C5800AE4B5B6803F48003002B31D0AB4B5B6831
:104C68009B090022BB66FA66BB6EC3F308033B666A
:104C780000237B66A74BD7E918452A4603FB02F2B7
:104C88000023214601FB03F31344A24A2146A1FB5A
:104C98000212FA670A46BA67FA6F1344FB67D7F835
:104CA8008C300022BB65FA65D7E91623D7E91E01C7
:104CB800FBF7C4FE02460B461346C7F8943064E07F
:104CC800924B5B689B0900223B657A653B6DC3F399
:104CD8000803BB640023FB64D7E9124522462B4630
:104CE8004FF000004FF00001590141EAD261500134
:104CF80002460B462146511A3961294663EB0103E6
:104D08007B614FF000024FF00003D7E904AB59462E
:104D18008B01514643EA916351468A015146B2EBF1
:104D28000108594663EB01094FF000024FF00003F8
:104D38004FEAC90343EA58734FEAC80290469946B6
:104D4800234618EB0303BB602B4649EB0303FB60C8
:104D58004FF000024FF00003D7E9024529468B02C5
:104D6800214643EA915321468A0210461946D7F84C
:104D78008C3000223B647A64D7E91023FBF75EFE8F
:104D880002460B461346C7F89430604B5B681B0C11
:104D980003F0030301335B00C7F88830D7F8942089
:104DA800D7F88830B2FBF3F3C7F89030A6E0574B3A
:104DB8005B6803F03F03C7F88C30544B5B6803F41F
:104DC8008003002B2AD0514B5B689B090022BB63F0
:104DD800FA63BB6BC3F3080000214E4B03FB01F2DF
:104DE800002300FB03F313444A4AA0FB02127A672C
:104DF8000A463A677A6F13447B67D7F88C300022EB
:104E08003B637A63D7E90C23D7E91C01FBF716FE4D
:104E180002460B461346C7F894305BE03B4B5B6891
:104E28009B090022BB62FA62BB6AC3F308033B62B8
:104E380000237B62D7E9088942464B464FF00000C1
:104E48004FF00001590141EAD261500102460B4678
:104E58004146B2EB010A494663EB010B4FF00002F1
:104E68004FF000034FEA8B1343EA9A634FEA8A1222
:104E7800B2EB0A0463EB0B054FF000024FF000039E
:104E8800EB0043EA5473E20014461D464346E31818
:104E98003B604B4645EB03037B604FF000024FF04D
:104EA8000003D7E9004529468B02214643EA91537E
:104EB80021468A0210461946D7F88C300022BB6179
:104EC800FA61D7E90623FBF7B9FD02460B461346FC
:104ED800C7F894300D4B5B681B0F03F00703C7F846
:104EE8008430D7F89420D7F88430B2FBF3F3C7F8AE
:104EF800903003E0064BC7F8903000BFD7F89030E9
:104F080018469837BD46BDE8B08F00BF003802404C
:104F18000024F40040787D0180B586B000AF786049
:104F28007B68002B01D101238DE27B681B6803F0AD
:104F38000103002B00F08380944B9B6803F00C0363
:104F4800042B19D0914B9B6803F00C03082B06D156
:104F58008E4B5B6803F48003B3F5800F0CD08B4B4A
:104F68009B6803F00C030C2B12D1884B5B6803F48D
:104F78008003B3F5800F0BD1844B1B6803F4003317
:104F8800002B5BD07B685B68002B57D101235AE26A
:104F98007B685B68B3F5803F06D17C4B1B687B4A16
:104FA80043F4803313601DE07B685B68B3F5A02F82
:104FB8000CD1764B1B68754A43F480231360734BFE
:104FC8001B68724A43F4803313600BE06F4B1B6815
:104FD8006E4A23F4803313606C4B1B686B4A23F4CE
:104FE800802313607B685B68002B13D0FEF710FCEE
:104FF800386108E0FEF70CFC02463B69D31A642BC3
:1050080001D903231FE2614B1B6803F40033002B13
:10501800F0D014E0FEF7FCFB386108E0FEF7F8FB7F
:1050280002463B69D31A642B01D903230BE2574B81
:105038001B6803F40033002BF0D100E000BF7B684D
:105048001B6803F00203002B6FD0504B9B6803F0E2
:105058000C03002B17D04D4B9B6803F00C03082B57
:1050680005D14A4B5B6803F48003002B0BD0474BF8
:105078009B6803F00C030C2B1CD1444B5B6803F4B6
:105088008003002B16D1414B1B6803F00203002B51
:1050980005D07B68DB68012B01D00123D3E13B4BB2
:1050A8001B6823F0F8027B681B69DB003749134350
:1050B8000B603AE07B68DB68002B20D0344B012280
:1050C8001A60FEF7A5FB386108E0FEF7A1FB02466F
:1050D8003B69D31A022B01D90323B4E12B4B1B687C
:1050E80003F00203002BF0D0284B1B6823F0F802D2
:1050F8007B681B69DB00254913430B6015E0244BD3
:1051080000221A60FEF784FB386108E0FEF780FB96
:1051180002463B69D31A022B01D9032393E11B4BA7
:105128001B6803F00203002BF0D17B681B6803F0B7
:105138000803002B36D07B685B69002B16D0154B13
:1051480001221A60FEF764FB386108E0FEF760FB95
:1051580002463B69D31A022B01D9032373E10B4B97
:105168005B6F03F00203002BF0D01BE0094B002219
:105178001A60FEF74DFB38610EE0FEF749FB024668
:105188003B69D31A022B07D903235CE1003802409C
:1051980000004742800E47428A4B5B6F03F00203D0
:1051A800002BEAD17B681B6803F00403002B00F096
:1051B80097800023FB75834B1B6C03F08053002BF7
:1051C8000FD10023BB607F4B1B6C7E4A43F080539A
:1051D80013647C4B1B6C03F08053BB60BB680123DA
:1051E800FB75794B1B6803F48073002B18D1764B41
:1051F8001B68754A43F480731360FEF709FB386136
:1052080008E0FEF705FB02463B69D31A022B01D9D9
:10521800032318E16C4B1B6803F48073002BF0D058
:105228007B689B68012B06D1664B1B6F654A43F070
:10523800010313671CE07B689B68052B0CD1614B4D
:105248001B6F604A43F0040313675E4B1B6F5D4A94
:1052580043F0010313670BE05A4B1B6F594A23F0C5
:1052680001031367574B1B6F564A23F00403136758
:105278007B689B68002B15D0FEF7CAFA38610AE0F4
:10528800FEF7C6FA02463B69D31A41F288329342C6
:1052980001D90323D7E04B4B1B6F03F00203002B0C
:1052A800EED014E0FEF7B4FA38610AE0FEF7B0FA7F
:1052B80002463B69D31A41F28832934201D903234B
:1052C800C1E0404B1B6F03F00203002BEED1FB7DC6
:1052D800012B05D13B4B1B6C3A4A23F080531364D6
:1052E8007B689B69002B00F0AD80364B9B6803F010
:1052F8000C03082B60D07B689B69022B45D1334B8C
:1053080000221A60FEF784FA386108E0FEF780FA96
:1053180002463B69D31A022B01D9032393E0294B98
:105328001B6803F00073002BF0D17B68DA697B6897
:105338001B6A1A437B685B6A9B011A437B689B6AFA
:105348005B08013B1B041A437B68DB6A1B061A4394
:105358007B681B6B1B071B4913434B601B4B0122CC
:105368001A60FEF755FA386108E0FEF751FA02466E
:105378003B69D31A022B01D9032364E0114B1B6844
:1053880003F00073002BF0D05CE0104B00221A6091
:10539800FEF73EFA386108E0FEF73AFA02463B6942
:1053A800D31A022B01D903234DE0064B1B6803F0E7
:1053B8000073002BF0D145E07B689B69012B07D176
:1053C800012340E00038024000700040600047427E
:1053D8001F4B5B68FB607B689B69012B30D0FB68C7
:1053E80003F480027B68DB699A4229D1FB6803F0E9
:1053F8003F027B681B6A9A4222D1FA6847F6C0735B
:1054080013407A68526A9201934219D1FB6803F4F7
:1054180040327B689B6A5B08013B1B049A420FD1B0
:10542800FB6803F070627B68DB6A1B069A4207D14F
:10543800FB6803F0E0427B681B6B1B079A4201D0B4
:10544800012300E0002318461837BD4680BD00BF81
:105458000038024080B582B000AF78607B68002BCE
:1054680001D1012341E07B6893F83D30DBB2002B8A
:1054780006D17B68002283F83C207868FDF71AFD86
:105488007B68022283F83D207B681A687B680433B6
:105498001946104600F096FA7B68012283F84620E8
:1054A8007B68012283F83E207B68012283F83F2035
:1054B8007B68012283F840207B68012283F8412021
:1054C8007B68012283F842207B68012283F843200D
:1054D8007B68012283F844207B68012283F84520F9
:1054E8007B68012283F83D20002318460837BD4613
:1054F80080BD000080B485B000AF78607B6893F809
:105508003D30DBB2012B01D001234EE07B68022243
:1055180083F83D207B681B68DA687B681B6842F06B
:105528000102DA607B681B68234A934222D07B68B9
:105538001B68B3F1804F1DD07B681B681F4A9342DC
:1055480018D07B681B681E4A934213D07B681B687F
:105558001C4A93420ED07B681B681B4A934209D0B1
:105568007B681B68194A934204D07B681B68184AF9
:10557800934211D17B681B689B6803F00703FB60AB
:10558800FB68062B10D07B681B681A687B681B6851
:1055980042F001021A6007E07B681B681A687B68A2
:1055A8001B6842F001021A60002318461437BD46F2
:1055B8005DF8047B704700BF000001400004004014
:1055C80000080040000C0040000401400040014079
:1055D8000018004080B582B000AF78607B681B6817
:1055E8001B6903F00203022B22D17B681B68DB686E
:1055F80003F00203022B1BD17B681B686FF00202C9
:105608001A617B6801221A777B681B689B6903F023
:105618000303002B03D0786800F0B5F905E078683B
:1056280000F0A7F9786800F0B8F97B6800221A77CB
:105638007B681B681B6903F00403042B22D17B6879
:105648001B68DB6803F00403042B1BD17B681B6811
:105658006FF004021A617B6802221A777B681B6864
:105668009B6903F44073002B03D0786800F08BF932
:1056780005E0786800F07DF9786800F08EF97B68BD
:1056880000221A777B681B681B6903F00803082B44
:1056980022D17B681B68DB6803F00803082B1BD149
:1056A8007B681B686FF008021A617B6804221A770E
:1056B8007B681B68DB6903F00303002B03D0786861
:1056C80000F061F905E0786800F053F9786800F0B7
:1056D80064F97B6800221A777B681B681B6903F0F2
:1056E8001003102B22D17B681B68DB6803F01003C2
:1056F800102B1BD17B681B686FF010021A617B6846
:1057080008221A777B681B68DB6903F44073002B57
:1057180003D0786800F037F905E0786800F029F9D7
:10572800786800F03AF97B6800221A777B681B6872
:105738001B6903F00103012B0ED17B681B68DB6832
:1057480003F00103012B07D17B681B686FF001028E
:105758001A617868FCF7C2FF7B681B681B6903F055
:105768008003802B0ED17B681B68DB6803F0800305
:10577800802B07D17B681B686FF080021A617868FC
:1057880000F064FA7B681B681B6903F04003402B38
:105798000ED17B681B68DB6803F04003402B07D100
:1057A8007B681B686FF040021A61786800F0FFF8A8
:1057B8007B681B681B6903F02003202B0ED17B68D4
:1057C8001B68DB6803F02003202B07D17B681B686C
:1057D8006FF020021A61786800F02EFA00BF0837CF
:1057E800BD4680BD80B584B000AF786039600023C5
:1057F800FB737B6893F83C30012B01D10223B4E0A2
:105808007B68012283F83C207B68022283F83D20D4
:105818007B681B689B68BB60BB6823F07703BB6031
:10582800BB6823F47F43BB607B681B68BA689A60D7
:105838003B681B68B3F5005F3ED0B3F5005F00F22C
:105848008780B3F5805F00F08680B3F5805F7FD8EE
:10585800702B1AD0702B7BD8602B50D0602B77D848
:10586800502B3CD0502B73D8402B58D0402B6FD89E
:10587800302B64D0302B6BD8202B60D0202B67D8EE
:10588800002B5CD0102B5AD062E07B6818683B680C
:1058980099683B685A683B68DB6800F0ADF97B683B
:1058A8001B689B68BB60BB6843F07703BB607B6881
:1058B8001B68BA689A604FE07B6818683B6899680B
:1058C8003B685A683B68DB6800F096F97B681B68A0
:1058D8009A687B681B6842F480429A603CE07B6867
:1058E80018683B6859683B68DB681A4600F00AF993
:1058F8007B681B685021184600F063F92CE07B6830
:1059080018683B6859683B68DB681A4600F029F953
:105918007B681B686021184600F053F91CE07B681F
:1059280018683B6859683B68DB681A4600F0EAF873
:105938007B681B684021184600F043F90CE07B683F
:105948001A683B681B681946104600F03AF903E0EC
:105958000123FB7300E000BF7B68012283F83D2030
:105968007B68002283F83C20FB7B18461037BD4635
:1059780080BD80B483B000AF786000BF0C37BD46EF
:105988005DF8047B704780B483B000AF786000BFD7
:105998000C37BD465DF8047B704780B483B000AF18
:1059A800786000BF0C37BD465DF8047B704780B453
:1059B80083B000AF786000BF0C37BD465DF8047B4C
:1059C8007047000080B485B000AF786039607B68AC
:1059D8001B68FB607B68404A934213D07B68B3F135
:1059E800804F0FD07B683D4A93420BD07B683C4A7E
:1059F800934207D07B683B4A934203D07B683A4A7C
:105A0800934208D1FB6823F07003FB603B685B6836
:105A1800FA681343FB607B682F4A93422BD07B685C
:105A2800B3F1804F27D07B682C4A934223D07B6800
:105A38002B4A93421FD07B682A4A93421BD07B682B
:105A4800294A934217D07B68284A934213D07B682F
:105A5800274A93420FD07B68264A93420BD07B6833
:105A6800254A934207D07B68244A934203D07B6837
:105A7800234A934208D1FB6823F44073FB603B68D8
:105A8800DB68FA681343FB60FB6823F080023B681D
:105A98005B691343FB607B68FA681A603B689A6825
:105AA8007B68DA623B681A687B689A627B680A4A94
:105AB800934203D07B680C4A934203D13B681A692E
:105AC8007B681A637B6801225A6100BF1437BD46A0
